{
  "_format": "hh-sol-artifact-1",
  "contractName": "RouterV2",
  "sourceName": "contracts/RouterV2.sol",
  "abi": [
    {
      "inputs": [
        {
          "internalType": "address",
          "name": "_factory",
          "type": "address"
        }
      ],
      "stateMutability": "nonpayable",
      "type": "constructor"
    },
    {
      "inputs": [
        {
          "internalType": "address",
          "name": "tokenA",
          "type": "address"
        },
        {
          "internalType": "address",
          "name": "tokenB",
          "type": "address"
        },
        {
          "internalType": "uint256",
          "name": "amountADesired",
          "type": "uint256"
        },
        {
          "internalType": "uint256",
          "name": "amountBDesired",
          "type": "uint256"
        },
        {
          "internalType": "uint256",
          "name": "",
          "type": "uint256"
        },
        {
          "internalType": "uint256",
          "name": "",
          "type": "uint256"
        },
        {
          "internalType": "address",
          "name": "to",
          "type": "address"
        },
        {
          "internalType": "uint256",
          "name": "",
          "type": "uint256"
        }
      ],
      "name": "addLiquidity",
      "outputs": [
        {
          "internalType": "uint256",
          "name": "",
          "type": "uint256"
        },
        {
          "internalType": "uint256",
          "name": "",
          "type": "uint256"
        },
        {
          "internalType": "uint256",
          "name": "",
          "type": "uint256"
        }
      ],
      "stateMutability": "nonpayable",
      "type": "function"
    },
    {
      "inputs": [],
      "name": "factory",
      "outputs": [
        {
          "internalType": "address",
          "name": "",
          "type": "address"
        }
      ],
      "stateMutability": "view",
      "type": "function"
    },
    {
      "inputs": [
        {
          "internalType": "uint256",
          "name": "amountIn",
          "type": "uint256"
        },
        {
          "internalType": "address[]",
          "name": "path",
          "type": "address[]"
        }
      ],
      "name": "getAmountsOut",
      "outputs": [
        {
          "internalType": "uint256[]",
          "name": "amounts",
          "type": "uint256[]"
        }
      ],
      "stateMutability": "view",
      "type": "function"
    },
    {
      "inputs": [
        {
          "internalType": "uint256",
          "name": "amountIn",
          "type": "uint256"
        },
        {
          "internalType": "uint256",
          "name": "amountOutMin",
          "type": "uint256"
        },
        {
          "internalType": "address[]",
          "name": "path",
          "type": "address[]"
        },
        {
          "internalType": "address",
          "name": "to",
          "type": "address"
        },
        {
          "internalType": "uint256",
          "name": "",
          "type": "uint256"
        }
      ],
      "name": "swapExactTokensForTokens",
      "outputs": [
        {
          "internalType": "uint256[]",
          "name": "amounts",
          "type": "uint256[]"
        }
      ],
      "stateMutability": "nonpayable",
      "type": "function"
    }
  ],
  "bytecode": "0x60a06040523480156200001157600080fd5b5060405162001b1438038062001b148339818101604052810190620000379190620000dc565b8073ffffffffffffffffffffffffffffffffffffffff1660808173ffffffffffffffffffffffffffffffffffffffff1681525050506200010e565b600080fd5b600073ffffffffffffffffffffffffffffffffffffffff82169050919050565b6000620000a48262000077565b9050919050565b620000b68162000097565b8114620000c257600080fd5b50565b600081519050620000d681620000ab565b92915050565b600060208284031215620000f557620000f462000072565b5b60006200010584828501620000c5565b91505092915050565b6080516119ce62000146600039600081816101be01528181610573015281816106650152818161093f0152610a1101526119ce6000f3fe608060405234801561001057600080fd5b506004361061004c5760003560e01c806338ed173914610051578063c45a015514610081578063d06ca61f1461009f578063e8e33700146100cf575b600080fd5b61006b60048036038101906100669190610f2d565b610101565b6040516100789190611085565b60405180910390f35b610089610571565b60405161009691906110b6565b60405180910390f35b6100b960048036038101906100b49190611220565b610595565b6040516100c69190611085565b60405180910390f35b6100e960048036038101906100e4919061127c565b610937565b6040516100f893929190611341565b60405180910390f35b606061014e87868680806020026020016040519081016040528093929190818152602001838360200280828437600081840152601f19601f82011690508083019250505050505050610595565b905085816001835161016091906113a7565b81518110610171576101706113db565b5b602002602001015110156101ba576040517f08c379a00000000000000000000000000000000000000000000000000000000081526004016101b190611467565b60405180910390fd5b60007f000000000000000000000000000000000000000000000000000000000000000073ffffffffffffffffffffffffffffffffffffffff1663e6a439058787600081811061020c5761020b6113db565b5b90506020020160208101906102219190611487565b88886001818110610235576102346113db565b5b905060200201602081019061024a9190611487565b6040518363ffffffff1660e01b81526004016102679291906114b4565b602060405180830381865afa158015610284573d6000803e3d6000fd5b505050506040513d601f19601f820116820180604052508101906102a891906114f2565b9050600073ffffffffffffffffffffffffffffffffffffffff168173ffffffffffffffffffffffffffffffffffffffff1603610319576040517f08c379a00000000000000000000000000000000000000000000000000000000081526004016103109061156b565b60405180910390fd5b8585600081811061032d5761032c6113db565b5b90506020020160208101906103429190611487565b73ffffffffffffffffffffffffffffffffffffffff166323b872dd338385600081518110610373576103726113db565b5b60200260200101516040518463ffffffff1660e01b81526004016103999392919061158b565b6020604051808303816000875af11580156103b8573d6000803e3d6000fd5b505050506040513d601f19601f820116820180604052508101906103dc91906115fa565b5060008173ffffffffffffffffffffffffffffffffffffffff16630dfe16816040518163ffffffff1660e01b8152600401602060405180830381865afa15801561042a573d6000803e3d6000fd5b505050506040513d601f19601f8201168201806040525081019061044e91906114f2565b90506000808273ffffffffffffffffffffffffffffffffffffffff168989600081811061047e5761047d6113db565b5b90506020020160208101906104939190611487565b73ffffffffffffffffffffffffffffffffffffffff16146104d157846001815181106104c2576104c16113db565b5b602002602001015160006104f0565b6000856001815181106104e7576104e66113db565b5b60200260200101515b915091508373ffffffffffffffffffffffffffffffffffffffff16636d9a640a83838a6040518463ffffffff1660e01b815260040161053193929190611627565b600060405180830381600087803b15801561054b57600080fd5b505af115801561055f573d6000803e3d6000fd5b50505050505050509695505050505050565b7f000000000000000000000000000000000000000000000000000000000000000081565b60606002825110156105dc576040517f08c379a00000000000000000000000000000000000000000000000000000000081526004016105d3906116aa565b60405180910390fd5b815167ffffffffffffffff8111156105f7576105f66110e2565b5b6040519080825280602002602001820160405280156106255781602001602082028036833780820191505090505b509050828160008151811061063d5761063c6113db565b5b60200260200101818152505060005b6001835161065a91906113a7565b8110156109305760007f000000000000000000000000000000000000000000000000000000000000000073ffffffffffffffffffffffffffffffffffffffff1663e6a439058584815181106106b2576106b16113db565b5b6020026020010151866001866106c891906116ca565b815181106106d9576106d86113db565b5b60200260200101516040518363ffffffff1660e01b81526004016106fe9291906114b4565b602060405180830381865afa15801561071b573d6000803e3d6000fd5b505050506040513d601f19601f8201168201806040525081019061073f91906114f2565b90506000808273ffffffffffffffffffffffffffffffffffffffff16630902f1ac6040518163ffffffff1660e01b81526004016040805180830381865afa15801561078e573d6000803e3d6000fd5b505050506040513d601f19601f820116820180604052508101906107b29190611744565b9150915060008373ffffffffffffffffffffffffffffffffffffffff16630dfe16816040518163ffffffff1660e01b8152600401602060405180830381865afa158015610803573d6000803e3d6000fd5b505050506040513d601f19601f8201168201806040525081019061082791906114f2565b90506000808273ffffffffffffffffffffffffffffffffffffffff16898881518110610856576108556113db565b5b602002602001015173ffffffffffffffffffffffffffffffffffffffff16146108a057836dffffffffffffffffffffffffffff16856dffffffffffffffffffffffffffff166108c3565b846dffffffffffffffffffffffffffff16846dffffffffffffffffffffffffffff165b915091506108ec8888815181106108dd576108dc6113db565b5b60200260200101518383610d36565b886001896108fa91906116ca565b8151811061090b5761090a6113db565b5b602002602001018181525050505050505050808061092890611784565b91505061064c565b5092915050565b6000806000807f000000000000000000000000000000000000000000000000000000000000000073ffffffffffffffffffffffffffffffffffffffff1663e6a439058d8d6040518363ffffffff1660e01b81526004016109989291906114b4565b602060405180830381865afa1580156109b5573d6000803e3d6000fd5b505050506040513d601f19601f820116820180604052508101906109d991906114f2565b9050600073ffffffffffffffffffffffffffffffffffffffff168173ffffffffffffffffffffffffffffffffffffffff1603610ab0577f000000000000000000000000000000000000000000000000000000000000000073ffffffffffffffffffffffffffffffffffffffff1663c9c653968d8d6040518363ffffffff1660e01b8152600401610a6a9291906114b4565b6020604051808303816000875af1158015610a89573d6000803e3d6000fd5b505050506040513d601f19601f82011682018060405250810190610aad91906114f2565b90505b8b73ffffffffffffffffffffffffffffffffffffffff166323b872dd33308d6040518463ffffffff1660e01b8152600401610aed9392919061158b565b6020604051808303816000875af1158015610b0c573d6000803e3d6000fd5b505050506040513d601f19601f82011682018060405250810190610b3091906115fa565b508a73ffffffffffffffffffffffffffffffffffffffff166323b872dd33308c6040518463ffffffff1660e01b8152600401610b6e9392919061158b565b6020604051808303816000875af1158015610b8d573d6000803e3d6000fd5b505050506040513d601f19601f82011682018060405250810190610bb191906115fa565b508b73ffffffffffffffffffffffffffffffffffffffff1663095ea7b3828c6040518363ffffffff1660e01b8152600401610bed9291906117cc565b6020604051808303816000875af1158015610c0c573d6000803e3d6000fd5b505050506040513d601f19601f82011682018060405250810190610c3091906115fa565b508a73ffffffffffffffffffffffffffffffffffffffff1663095ea7b3828b6040518363ffffffff1660e01b8152600401610c6c9291906117cc565b6020604051808303816000875af1158015610c8b573d6000803e3d6000fd5b505050506040513d601f19601f82011682018060405250810190610caf91906115fa565b508073ffffffffffffffffffffffffffffffffffffffff16639cd441da8b8b6040518363ffffffff1660e01b8152600401610ceb9291906117f5565b600060405180830381600087803b158015610d0557600080fd5b505af1158015610d19573d6000803e3d6000fd5b505050508989600093509350935050985098509895505050505050565b6000808411610d7a576040517f08c379a0000000000000000000000000000000000000000000000000000000008152600401610d719061186a565b60405180910390fd5b600083118015610d8a5750600082115b610dc9576040517f08c379a0000000000000000000000000000000000000000000000000000000008152600401610dc0906118d6565b60405180910390fd5b60006103e585610dd991906118f6565b905060008382610de991906118f6565b90506000826103e887610dfc91906118f6565b610e0691906116ca565b90508082610e149190611967565b93505050509392505050565b6000604051905090565b600080fd5b600080fd5b6000819050919050565b610e4781610e34565b8114610e5257600080fd5b50565b600081359050610e6481610e3e565b92915050565b600080fd5b600080fd5b600080fd5b60008083601f840112610e8f57610e8e610e6a565b5b8235905067ffffffffffffffff811115610eac57610eab610e6f565b5b602083019150836020820283011115610ec857610ec7610e74565b5b9250929050565b600073ffffffffffffffffffffffffffffffffffffffff82169050919050565b6000610efa82610ecf565b9050919050565b610f0a81610eef565b8114610f1557600080fd5b50565b600081359050610f2781610f01565b92915050565b60008060008060008060a08789031215610f4a57610f49610e2a565b5b6000610f5889828a01610e55565b9650506020610f6989828a01610e55565b955050604087013567ffffffffffffffff811115610f8a57610f89610e2f565b5b610f9689828a01610e79565b94509450506060610fa989828a01610f18565b9250506080610fba89828a01610e55565b9150509295509295509295565b600081519050919050565b600082825260208201905092915050565b6000819050602082019050919050565b610ffc81610e34565b82525050565b600061100e8383610ff3565b60208301905092915050565b6000602082019050919050565b600061103282610fc7565b61103c8185610fd2565b935061104783610fe3565b8060005b8381101561107857815161105f8882611002565b975061106a8361101a565b92505060018101905061104b565b5085935050505092915050565b6000602082019050818103600083015261109f8184611027565b905092915050565b6110b081610eef565b82525050565b60006020820190506110cb60008301846110a7565b92915050565b6000601f19601f8301169050919050565b7f4e487b7100000000000000000000000000000000000000000000000000000000600052604160045260246000fd5b61111a826110d1565b810181811067ffffffffffffffff82111715611139576111386110e2565b5b80604052505050565b600061114c610e20565b90506111588282611111565b919050565b600067ffffffffffffffff821115611178576111776110e2565b5b602082029050602081019050919050565b600061119c6111978461115d565b611142565b905080838252602082019050602084028301858111156111bf576111be610e74565b5b835b818110156111e857806111d48882610f18565b8452602084019350506020810190506111c1565b5050509392505050565b600082601f83011261120757611206610e6a565b5b8135611217848260208601611189565b91505092915050565b6000806040838503121561123757611236610e2a565b5b600061124585828601610e55565b925050602083013567ffffffffffffffff81111561126657611265610e2f565b5b611272858286016111f2565b9150509250929050565b600080600080600080600080610100898b03121561129d5761129c610e2a565b5b60006112ab8b828c01610f18565b98505060206112bc8b828c01610f18565b97505060406112cd8b828c01610e55565b96505060606112de8b828c01610e55565b95505060806112ef8b828c01610e55565b94505060a06113008b828c01610e55565b93505060c06113118b828c01610f18565b92505060e06113228b828c01610e55565b9150509295985092959890939650565b61133b81610e34565b82525050565b60006060820190506113566000830186611332565b6113636020830185611332565b6113706040830184611332565b949350505050565b7f4e487b7100000000000000000000000000000000000000000000000000000000600052601160045260246000fd5b60006113b282610e34565b91506113bd83610e34565b92508282039050818111156113d5576113d4611378565b5b92915050565b7f4e487b7100000000000000000000000000000000000000000000000000000000600052603260045260246000fd5b600082825260208201905092915050565b7f494e53554646494349454e545f4f55545055545f414d4f554e54000000000000600082015250565b6000611451601a8361140a565b915061145c8261141b565b602082019050919050565b6000602082019050818103600083015261148081611444565b9050919050565b60006020828403121561149d5761149c610e2a565b5b60006114ab84828501610f18565b91505092915050565b60006040820190506114c960008301856110a7565b6114d660208301846110a7565b9392505050565b6000815190506114ec81610f01565b92915050565b60006020828403121561150857611507610e2a565b5b6000611516848285016114dd565b91505092915050565b7f5061697220646f6573206e6f7420657869737400000000000000000000000000600082015250565b600061155560138361140a565b91506115608261151f565b602082019050919050565b6000602082019050818103600083015261158481611548565b9050919050565b60006060820190506115a060008301866110a7565b6115ad60208301856110a7565b6115ba6040830184611332565b949350505050565b60008115159050919050565b6115d7816115c2565b81146115e257600080fd5b50565b6000815190506115f4816115ce565b92915050565b6000602082840312156116105761160f610e2a565b5b600061161e848285016115e5565b91505092915050565b600060608201905061163c6000830186611332565b6116496020830185611332565b61165660408301846110a7565b949350505050565b7f496e76616c696420706174680000000000000000000000000000000000000000600082015250565b6000611694600c8361140a565b915061169f8261165e565b602082019050919050565b600060208201905081810360008301526116c381611687565b9050919050565b60006116d582610e34565b91506116e083610e34565b92508282019050808211156116f8576116f7611378565b5b92915050565b60006dffffffffffffffffffffffffffff82169050919050565b611721816116fe565b811461172c57600080fd5b50565b60008151905061173e81611718565b92915050565b6000806040838503121561175b5761175a610e2a565b5b60006117698582860161172f565b925050602061177a8582860161172f565b9150509250929050565b600061178f82610e34565b91507fffffffffffffffffffffffffffffffffffffffffffffffffffffffffffffffff82036117c1576117c0611378565b5b600182019050919050565b60006040820190506117e160008301856110a7565b6117ee6020830184611332565b9392505050565b600060408201905061180a6000830185611332565b6118176020830184611332565b9392505050565b7f494e53554646494349454e545f494e5055545f414d4f554e5400000000000000600082015250565b600061185460198361140a565b915061185f8261181e565b602082019050919050565b6000602082019050818103600083015261188381611847565b9050919050565b7f494e53554646494349454e545f4c495155494449545900000000000000000000600082015250565b60006118c060168361140a565b91506118cb8261188a565b602082019050919050565b600060208201905081810360008301526118ef816118b3565b9050919050565b600061190182610e34565b915061190c83610e34565b925082820261191a81610e34565b9150828204841483151761193157611930611378565b5b5092915050565b7f4e487b7100000000000000000000000000000000000000000000000000000000600052601260045260246000fd5b600061197282610e34565b915061197d83610e34565b92508261198d5761198c611938565b5b82820490509291505056fea264697066735822122075457785e9b8f22a0d31e3b5bad1cbce4b420c31910154b4d3ae4a61e3fd8b5364736f6c63430008130033",
  "linkReferences": {},
  "deployedLinkReferences": {}
}