{
  "_format": "hh-sol-artifact-1",
  "contractName": "UniswapStyleRouter",
  "sourceName": "contracts/UniswapStyleRouter.sol",
  "abi": [
    {
      "inputs": [
        {
          "internalType": "address",
          "name": "_factory",
          "type": "address"
        }
      ],
      "stateMutability": "nonpayable",
      "type": "constructor"
    },
    {
      "inputs": [
        {
          "internalType": "address",
          "name": "tokenA",
          "type": "address"
        },
        {
          "internalType": "address",
          "name": "tokenB",
          "type": "address"
        },
        {
          "internalType": "uint256",
          "name": "amountA",
          "type": "uint256"
        },
        {
          "internalType": "uint256",
          "name": "amountB",
          "type": "uint256"
        }
      ],
      "name": "addLiquidity",
      "outputs": [
        {
          "internalType": "uint256",
          "name": "",
          "type": "uint256"
        },
        {
          "internalType": "uint256",
          "name": "",
          "type": "uint256"
        }
      ],
      "stateMutability": "nonpayable",
      "type": "function"
    },
    {
      "inputs": [],
      "name": "factory",
      "outputs": [
        {
          "internalType": "address",
          "name": "",
          "type": "address"
        }
      ],
      "stateMutability": "view",
      "type": "function"
    },
    {
      "inputs": [
        {
          "internalType": "uint256",
          "name": "amountIn",
          "type": "uint256"
        },
        {
          "internalType": "uint256",
          "name": "reserveIn",
          "type": "uint256"
        },
        {
          "internalType": "uint256",
          "name": "reserveOut",
          "type": "uint256"
        }
      ],
      "name": "getAmountOut",
      "outputs": [
        {
          "internalType": "uint256",
          "name": "",
          "type": "uint256"
        }
      ],
      "stateMutability": "pure",
      "type": "function"
    },
    {
      "inputs": [
        {
          "internalType": "uint256",
          "name": "amountIn",
          "type": "uint256"
        },
        {
          "internalType": "uint256",
          "name": "",
          "type": "uint256"
        },
        {
          "internalType": "address[]",
          "name": "path",
          "type": "address[]"
        },
        {
          "internalType": "address",
          "name": "to",
          "type": "address"
        },
        {
          "internalType": "uint256",
          "name": "",
          "type": "uint256"
        }
      ],
      "name": "swapExactTokensForTokens",
      "outputs": [
        {
          "internalType": "bool",
          "name": "",
          "type": "bool"
        }
      ],
      "stateMutability": "nonpayable",
      "type": "function"
    }
  ],
  "bytecode": "0x60806040523480156200001157600080fd5b506040516200111f3803806200111f8339818101604052810190620000379190620000e8565b806000806101000a81548173ffffffffffffffffffffffffffffffffffffffff021916908373ffffffffffffffffffffffffffffffffffffffff160217905550506200011a565b600080fd5b600073ffffffffffffffffffffffffffffffffffffffff82169050919050565b6000620000b08262000083565b9050919050565b620000c281620000a3565b8114620000ce57600080fd5b50565b600081519050620000e281620000b7565b92915050565b6000602082840312156200010157620001006200007e565b5b60006200011184828501620000d1565b91505092915050565b610ff5806200012a6000396000f3fe608060405234801561001057600080fd5b506004361061004c5760003560e01c8063054d50d41461005157806338ed173914610081578063c45a0155146100b1578063cf6c62ea146100cf575b600080fd5b61006b60048036038101906100669190610831565b610100565b6040516100789190610893565b60405180910390f35b61009b60048036038101906100969190610971565b610158565b6040516100a89190610a26565b60405180910390f35b6100b96104a2565b6040516100c69190610a50565b60405180910390f35b6100e960048036038101906100e49190610a6b565b6104c6565b6040516100f7929190610ad2565b60405180910390f35b6000806103e5856101119190610b2a565b9050600083826101219190610b2a565b90506000826103e8876101349190610b2a565b61013e9190610b6c565b9050808261014c9190610bcf565b93505050509392505050565b600060028585905010156101a1576040517f08c379a000000000000000000000000000000000000000000000000000000000815260040161019890610c5d565b60405180910390fd5b6000858560008181106101b7576101b6610c7d565b5b90506020020160208101906101cc9190610cac565b9050600086866001898990506101e29190610cd9565b8181106101f2576101f1610c7d565b5b90506020020160208101906102079190610cac565b905060006102158383610675565b90508273ffffffffffffffffffffffffffffffffffffffff166323b872dd33838d6040518463ffffffff1660e01b815260040161025493929190610d0d565b6020604051808303816000875af1158015610273573d6000803e3d6000fd5b505050506040513d601f19601f820116820180604052508101906102979190610d70565b6102a057600080fd5b6000808273ffffffffffffffffffffffffffffffffffffffff16630902f1ac6040518163ffffffff1660e01b81526004016040805180830381865afa1580156102ed573d6000803e3d6000fd5b505050506040513d601f19601f820116820180604052508101906103119190610de3565b915091508373ffffffffffffffffffffffffffffffffffffffff168573ffffffffffffffffffffffffffffffffffffffff1610156103ee5760006103768d846dffffffffffffffffffffffffffff16846dffffffffffffffffffffffffffff16610100565b90508373ffffffffffffffffffffffffffffffffffffffff16636d9a640a6000838c6040518463ffffffff1660e01b81526004016103b693929190610e68565b600060405180830381600087803b1580156103d057600080fd5b505af11580156103e4573d6000803e3d6000fd5b505050505061048f565b600061041b8d836dffffffffffffffffffffffffffff16856dffffffffffffffffffffffffffff16610100565b90508373ffffffffffffffffffffffffffffffffffffffff16636d9a640a8260008c6040518463ffffffff1660e01b815260040161045b93929190610e9f565b600060405180830381600087803b15801561047557600080fd5b505af1158015610489573d6000803e3d6000fd5b50505050505b6001955050505050509695505050505050565b60008054906101000a900473ffffffffffffffffffffffffffffffffffffffff1681565b60008060006104d58787610675565b90508673ffffffffffffffffffffffffffffffffffffffff166323b872dd3383886040518463ffffffff1660e01b815260040161051493929190610d0d565b6020604051808303816000875af1158015610533573d6000803e3d6000fd5b505050506040513d601f19601f820116820180604052508101906105579190610d70565b61056057600080fd5b8573ffffffffffffffffffffffffffffffffffffffff166323b872dd3383876040518463ffffffff1660e01b815260040161059d93929190610d0d565b6020604051808303816000875af11580156105bc573d6000803e3d6000fd5b505050506040513d601f19601f820116820180604052508101906105e09190610d70565b6105e957600080fd5b8073ffffffffffffffffffffffffffffffffffffffff16639cd441da6000806040518363ffffffff1660e01b8152600401610625929190610ed6565b60408051808303816000875af1158015610643573d6000803e3d6000fd5b505050506040513d601f19601f820116820180604052508101906106679190610f14565b925092505094509492505050565b60008060009054906101000a900473ffffffffffffffffffffffffffffffffffffffff1673ffffffffffffffffffffffffffffffffffffffff1663e6a4390584846040518363ffffffff1660e01b81526004016106d3929190610f54565b602060405180830381865afa1580156106f0573d6000803e3d6000fd5b505050506040513d601f19601f820116820180604052508101906107149190610f92565b9050600073ffffffffffffffffffffffffffffffffffffffff168173ffffffffffffffffffffffffffffffffffffffff16036107eb5760008054906101000a900473ffffffffffffffffffffffffffffffffffffffff1673ffffffffffffffffffffffffffffffffffffffff1663c9c6539684846040518363ffffffff1660e01b81526004016107a5929190610f54565b6020604051808303816000875af11580156107c4573d6000803e3d6000fd5b505050506040513d601f19601f820116820180604052508101906107e89190610f92565b90505b92915050565b600080fd5b600080fd5b6000819050919050565b61080e816107fb565b811461081957600080fd5b50565b60008135905061082b81610805565b92915050565b60008060006060848603121561084a576108496107f1565b5b60006108588682870161081c565b93505060206108698682870161081c565b925050604061087a8682870161081c565b9150509250925092565b61088d816107fb565b82525050565b60006020820190506108a86000830184610884565b92915050565b600080fd5b600080fd5b600080fd5b60008083601f8401126108d3576108d26108ae565b5b8235905067ffffffffffffffff8111156108f0576108ef6108b3565b5b60208301915083602082028301111561090c5761090b6108b8565b5b9250929050565b600073ffffffffffffffffffffffffffffffffffffffff82169050919050565b600061093e82610913565b9050919050565b61094e81610933565b811461095957600080fd5b50565b60008135905061096b81610945565b92915050565b60008060008060008060a0878903121561098e5761098d6107f1565b5b600061099c89828a0161081c565b96505060206109ad89828a0161081c565b955050604087013567ffffffffffffffff8111156109ce576109cd6107f6565b5b6109da89828a016108bd565b945094505060606109ed89828a0161095c565b92505060806109fe89828a0161081c565b9150509295509295509295565b60008115159050919050565b610a2081610a0b565b82525050565b6000602082019050610a3b6000830184610a17565b92915050565b610a4a81610933565b82525050565b6000602082019050610a656000830184610a41565b92915050565b60008060008060808587031215610a8557610a846107f1565b5b6000610a938782880161095c565b9450506020610aa48782880161095c565b9350506040610ab58782880161081c565b9250506060610ac68782880161081c565b91505092959194509250565b6000604082019050610ae76000830185610884565b610af46020830184610884565b9392505050565b7f4e487b7100000000000000000000000000000000000000000000000000000000600052601160045260246000fd5b6000610b35826107fb565b9150610b40836107fb565b9250828202610b4e816107fb565b91508282048414831517610b6557610b64610afb565b5b5092915050565b6000610b77826107fb565b9150610b82836107fb565b9250828201905080821115610b9a57610b99610afb565b5b92915050565b7f4e487b7100000000000000000000000000000000000000000000000000000000600052601260045260246000fd5b6000610bda826107fb565b9150610be5836107fb565b925082610bf557610bf4610ba0565b5b828204905092915050565b600082825260208201905092915050565b7f494e56414c49445f504154480000000000000000000000000000000000000000600082015250565b6000610c47600c83610c00565b9150610c5282610c11565b602082019050919050565b60006020820190508181036000830152610c7681610c3a565b9050919050565b7f4e487b7100000000000000000000000000000000000000000000000000000000600052603260045260246000fd5b600060208284031215610cc257610cc16107f1565b5b6000610cd08482850161095c565b91505092915050565b6000610ce4826107fb565b9150610cef836107fb565b9250828203905081811115610d0757610d06610afb565b5b92915050565b6000606082019050610d226000830186610a41565b610d2f6020830185610a41565b610d3c6040830184610884565b949350505050565b610d4d81610a0b565b8114610d5857600080fd5b50565b600081519050610d6a81610d44565b92915050565b600060208284031215610d8657610d856107f1565b5b6000610d9484828501610d5b565b91505092915050565b60006dffffffffffffffffffffffffffff82169050919050565b610dc081610d9d565b8114610dcb57600080fd5b50565b600081519050610ddd81610db7565b92915050565b60008060408385031215610dfa57610df96107f1565b5b6000610e0885828601610dce565b9250506020610e1985828601610dce565b9150509250929050565b6000819050919050565b6000819050919050565b6000610e52610e4d610e4884610e23565b610e2d565b6107fb565b9050919050565b610e6281610e37565b82525050565b6000606082019050610e7d6000830186610e59565b610e8a6020830185610884565b610e976040830184610a41565b949350505050565b6000606082019050610eb46000830186610884565b610ec16020830185610e59565b610ece6040830184610a41565b949350505050565b6000604082019050610eeb6000830185610e59565b610ef86020830184610e59565b9392505050565b600081519050610f0e81610805565b92915050565b60008060408385031215610f2b57610f2a6107f1565b5b6000610f3985828601610eff565b9250506020610f4a85828601610eff565b9150509250929050565b6000604082019050610f696000830185610a41565b610f766020830184610a41565b9392505050565b600081519050610f8c81610945565b92915050565b600060208284031215610fa857610fa76107f1565b5b6000610fb684828501610f7d565b9150509291505056fea2646970667358221220572be1f8d3d6bfefdef83140645ba776f4d11355d25a16ed3cad55ec167b7ee564736f6c63430008130033",
  "linkReferences": {},
  "deployedLinkReferences": {}
}