{
  "_format": "hh-sol-artifact-1",
  "contractName": "SimplePair",
  "sourceName": "contracts/SimplePair.sol",
  "abi": [
    {
      "inputs": [
        {
          "internalType": "uint256",
          "name": "amount0",
          "type": "uint256"
        },
        {
          "internalType": "uint256",
          "name": "amount1",
          "type": "uint256"
        }
      ],
      "name": "addLiquidity",
      "outputs": [
        {
          "internalType": "uint256",
          "name": "",
          "type": "uint256"
        },
        {
          "internalType": "uint256",
          "name": "",
          "type": "uint256"
        }
      ],
      "stateMutability": "nonpayable",
      "type": "function"
    },
    {
      "inputs": [],
      "name": "getReserves",
      "outputs": [
        {
          "internalType": "uint112",
          "name": "",
          "type": "uint112"
        },
        {
          "internalType": "uint112",
          "name": "",
          "type": "uint112"
        }
      ],
      "stateMutability": "view",
      "type": "function"
    },
    {
      "inputs": [
        {
          "internalType": "address",
          "name": "_token0",
          "type": "address"
        },
        {
          "internalType": "address",
          "name": "_token1",
          "type": "address"
        }
      ],
      "name": "initialize",
      "outputs": [],
      "stateMutability": "nonpayable",
      "type": "function"
    },
    {
      "inputs": [
        {
          "internalType": "uint256",
          "name": "amount0Out",
          "type": "uint256"
        },
        {
          "internalType": "uint256",
          "name": "amount1Out",
          "type": "uint256"
        },
        {
          "internalType": "address",
          "name": "to",
          "type": "address"
        }
      ],
      "name": "swap",
      "outputs": [],
      "stateMutability": "nonpayable",
      "type": "function"
    },
    {
      "inputs": [],
      "name": "token0",
      "outputs": [
        {
          "internalType": "address",
          "name": "",
          "type": "address"
        }
      ],
      "stateMutability": "view",
      "type": "function"
    },
    {
      "inputs": [],
      "name": "token1",
      "outputs": [
        {
          "internalType": "address",
          "name": "",
          "type": "address"
        }
      ],
      "stateMutability": "view",
      "type": "function"
    }
  ],
  "bytecode": "0x608060405234801561001057600080fd5b506113a2806100206000396000f3fe608060405234801561001057600080fd5b50600436106100625760003560e01c80630902f1ac146100675780630dfe168114610086578063485cc955146100a45780636d9a640a146100c05780639cd441da146100dc578063d21220a71461010d575b600080fd5b61006f61012b565b60405161007d929190610d08565b60405180910390f35b61008e610170565b60405161009b9190610d72565b60405180910390f35b6100be60048036038101906100b99190610dbe565b610194565b005b6100da60048036038101906100d59190610e34565b610284565b005b6100f660048036038101906100f19190610e87565b61086c565b604051610104929190610ed6565b60405180910390f35b610115610b0c565b6040516101229190610d72565b60405180910390f35b600080600260009054906101000a90046dffffffffffffffffffffffffffff166002600e9054906101000a90046dffffffffffffffffffffffffffff16915091509091565b60008054906101000a900473ffffffffffffffffffffffffffffffffffffffff1681565b6002601c9054906101000a900460ff16156101e4576040517f08c379a00000000000000000000000000000000000000000000000000000000081526004016101db90610f5c565b60405180910390fd5b816000806101000a81548173ffffffffffffffffffffffffffffffffffffffff021916908373ffffffffffffffffffffffffffffffffffffffff16021790555080600160006101000a81548173ffffffffffffffffffffffffffffffffffffffff021916908373ffffffffffffffffffffffffffffffffffffffff16021790555060016002601c6101000a81548160ff0219169083151502179055505050565b60008314806102935750600082145b6102d2576040517f08c379a00000000000000000000000000000000000000000000000000000000081526004016102c990610fc8565b60405180910390fd5b600080600260009054906101000a90046dffffffffffffffffffffffffffff166002600e9054906101000a90046dffffffffffffffffffffffffffff169150915060008511156105be57816dffffffffffffffffffffffffffff16851061036e576040517f08c379a000000000000000000000000000000000000000000000000000000000815260040161036590611034565b60405180910390fd5b60008054906101000a900473ffffffffffffffffffffffffffffffffffffffff1673ffffffffffffffffffffffffffffffffffffffff1663a9059cbb84876040518363ffffffff1660e01b81526004016103c9929190611054565b6020604051808303816000875af11580156103e8573d6000803e3d6000fd5b505050506040513d601f19601f8201168201806040525081019061040c91906110b5565b61041557600080fd5b6000600160009054906101000a900473ffffffffffffffffffffffffffffffffffffffff1673ffffffffffffffffffffffffffffffffffffffff166370a08231306040518263ffffffff1660e01b81526004016104729190610d72565b602060405180830381865afa15801561048f573d6000803e3d6000fd5b505050506040513d601f19601f820116820180604052508101906104b391906110f7565b90506000826dffffffffffffffffffffffffffff1682116104d55760006104f2565b826dffffffffffffffffffffffffffff16826104f19190611153565b5b905060006103e86103e5836105079190611187565b61051191906111f8565b90506000856dffffffffffffffffffffffffffff16826105319190611187565b90506000826103e8876dffffffffffffffffffffffffffff166105549190611187565b61055e9190611229565b90506000818361056e91906111f8565b90508a8110156105b3576040517f08c379a00000000000000000000000000000000000000000000000000000000081526004016105aa906112a9565b60405180910390fd5b50505050505061085d565b806dffffffffffffffffffffffffffff168410610610576040517f08c379a000000000000000000000000000000000000000000000000000000000815260040161060790611034565b60405180910390fd5b600160009054906101000a900473ffffffffffffffffffffffffffffffffffffffff1673ffffffffffffffffffffffffffffffffffffffff1663a9059cbb84866040518363ffffffff1660e01b815260040161066d929190611054565b6020604051808303816000875af115801561068c573d6000803e3d6000fd5b505050506040513d601f19601f820116820180604052508101906106b091906110b5565b6106b957600080fd5b60008060009054906101000a900473ffffffffffffffffffffffffffffffffffffffff1673ffffffffffffffffffffffffffffffffffffffff166370a08231306040518263ffffffff1660e01b81526004016107159190610d72565b602060405180830381865afa158015610732573d6000803e3d6000fd5b505050506040513d601f19601f8201168201806040525081019061075691906110f7565b90506000836dffffffffffffffffffffffffffff168211610778576000610795565b836dffffffffffffffffffffffffffff16826107949190611153565b5b905060006103e86103e5836107aa9190611187565b6107b491906111f8565b90506000846dffffffffffffffffffffffffffff16826107d49190611187565b90506000826103e8886dffffffffffffffffffffffffffff166107f79190611187565b6108019190611229565b90506000818361081191906111f8565b905089811015610856576040517f08c379a000000000000000000000000000000000000000000000000000000000815260040161084d906112a9565b60405180910390fd5b5050505050505b610865610b32565b5050505050565b60008060008414801561087f5750600083145b156108f55761088c610b32565b600260009054906101000a90046dffffffffffffffffffffffffffff166002600e9054906101000a90046dffffffffffffffffffffffffffff16816dffffffffffffffffffffffffffff169150806dffffffffffffffffffffffffffff16905091509150610b05565b6000841180156109055750600083115b610944576040517f08c379a000000000000000000000000000000000000000000000000000000000815260040161093b90611315565b60405180910390fd5b60008054906101000a900473ffffffffffffffffffffffffffffffffffffffff1673ffffffffffffffffffffffffffffffffffffffff166323b872dd3330876040518463ffffffff1660e01b81526004016109a193929190611335565b6020604051808303816000875af11580156109c0573d6000803e3d6000fd5b505050506040513d601f19601f820116820180604052508101906109e491906110b5565b6109ed57600080fd5b600160009054906101000a900473ffffffffffffffffffffffffffffffffffffffff1673ffffffffffffffffffffffffffffffffffffffff166323b872dd3330866040518463ffffffff1660e01b8152600401610a4c93929190611335565b6020604051808303816000875af1158015610a6b573d6000803e3d6000fd5b505050506040513d601f19601f82011682018060405250810190610a8f91906110b5565b610a9857600080fd5b610aa0610b32565b600260009054906101000a90046dffffffffffffffffffffffffffff166002600e9054906101000a90046dffffffffffffffffffffffffffff16816dffffffffffffffffffffffffffff169150806dffffffffffffffffffffffffffff169050915091505b9250929050565b600160009054906101000a900473ffffffffffffffffffffffffffffffffffffffff1681565b60008060009054906101000a900473ffffffffffffffffffffffffffffffffffffffff1673ffffffffffffffffffffffffffffffffffffffff166370a08231306040518263ffffffff1660e01b8152600401610b8e9190610d72565b602060405180830381865afa158015610bab573d6000803e3d6000fd5b505050506040513d601f19601f82011682018060405250810190610bcf91906110f7565b90506000600160009054906101000a900473ffffffffffffffffffffffffffffffffffffffff1673ffffffffffffffffffffffffffffffffffffffff166370a08231306040518263ffffffff1660e01b8152600401610c2e9190610d72565b602060405180830381865afa158015610c4b573d6000803e3d6000fd5b505050506040513d601f19601f82011682018060405250810190610c6f91906110f7565b905081600260006101000a8154816dffffffffffffffffffffffffffff02191690836dffffffffffffffffffffffffffff160217905550806002600e6101000a8154816dffffffffffffffffffffffffffff02191690836dffffffffffffffffffffffffffff1602179055505050565b60006dffffffffffffffffffffffffffff82169050919050565b610d0281610cdf565b82525050565b6000604082019050610d1d6000830185610cf9565b610d2a6020830184610cf9565b9392505050565b600073ffffffffffffffffffffffffffffffffffffffff82169050919050565b6000610d5c82610d31565b9050919050565b610d6c81610d51565b82525050565b6000602082019050610d876000830184610d63565b92915050565b600080fd5b610d9b81610d51565b8114610da657600080fd5b50565b600081359050610db881610d92565b92915050565b60008060408385031215610dd557610dd4610d8d565b5b6000610de385828601610da9565b9250506020610df485828601610da9565b9150509250929050565b6000819050919050565b610e1181610dfe565b8114610e1c57600080fd5b50565b600081359050610e2e81610e08565b92915050565b600080600060608486031215610e4d57610e4c610d8d565b5b6000610e5b86828701610e1f565b9350506020610e6c86828701610e1f565b9250506040610e7d86828701610da9565b9150509250925092565b60008060408385031215610e9e57610e9d610d8d565b5b6000610eac85828601610e1f565b9250506020610ebd85828601610e1f565b9150509250929050565b610ed081610dfe565b82525050565b6000604082019050610eeb6000830185610ec7565b610ef86020830184610ec7565b9392505050565b600082825260208201905092915050565b7f414c524541445900000000000000000000000000000000000000000000000000600082015250565b6000610f46600783610eff565b9150610f5182610f10565b602082019050919050565b60006020820190508181036000830152610f7581610f39565b9050919050565b7f4f4e455f4f55545055545f4f4e4c590000000000000000000000000000000000600082015250565b6000610fb2600f83610eff565b9150610fbd82610f7c565b602082019050919050565b60006020820190508181036000830152610fe181610fa5565b9050919050565b7f494e53554646494349454e545f4c495155494449545900000000000000000000600082015250565b600061101e601683610eff565b915061102982610fe8565b602082019050919050565b6000602082019050818103600083015261104d81611011565b9050919050565b60006040820190506110696000830185610d63565b6110766020830184610ec7565b9392505050565b60008115159050919050565b6110928161107d565b811461109d57600080fd5b50565b6000815190506110af81611089565b92915050565b6000602082840312156110cb576110ca610d8d565b5b60006110d9848285016110a0565b91505092915050565b6000815190506110f181610e08565b92915050565b60006020828403121561110d5761110c610d8d565b5b600061111b848285016110e2565b91505092915050565b7f4e487b7100000000000000000000000000000000000000000000000000000000600052601160045260246000fd5b600061115e82610dfe565b915061116983610dfe565b925082820390508181111561118157611180611124565b5b92915050565b600061119282610dfe565b915061119d83610dfe565b92508282026111ab81610dfe565b915082820484148315176111c2576111c1611124565b5b5092915050565b7f4e487b7100000000000000000000000000000000000000000000000000000000600052601260045260246000fd5b600061120382610dfe565b915061120e83610dfe565b92508261121e5761121d6111c9565b5b828204905092915050565b600061123482610dfe565b915061123f83610dfe565b925082820190508082111561125757611256611124565b5b92915050565b7f494e53554646494349454e545f494e5055545f414d4f554e5400000000000000600082015250565b6000611293601983610eff565b915061129e8261125d565b602082019050919050565b600060208201905081810360008301526112c281611286565b9050919050565b7f494e53554646494349454e545f414d4f554e5400000000000000000000000000600082015250565b60006112ff601383610eff565b915061130a826112c9565b602082019050919050565b6000602082019050818103600083015261132e816112f2565b9050919050565b600060608201905061134a6000830186610d63565b6113576020830185610d63565b6113646040830184610ec7565b94935050505056fea2646970667358221220b66a0dbfe9c8f1dba41e414454a8fa1fe49189b29ffce1fe97fa5e29aef71f1964736f6c63430008130033",
  "linkReferences": {},
  "deployedLinkReferences": {}
}