{
  "_format": "hh-sol-artifact-1",
  "contractName": "UniswapV2Pair",
  "sourceName": "contracts/UniswapV2Factory.sol",
  "abi": [
    {
      "anonymous": false,
      "inputs": [
        {
          "indexed": true,
          "internalType": "address",
          "name": "owner",
          "type": "address"
        },
        {
          "indexed": true,
          "internalType": "address",
          "name": "spender",
          "type": "address"
        },
        {
          "indexed": false,
          "internalType": "uint256",
          "name": "value",
          "type": "uint256"
        }
      ],
      "name": "Approval",
      "type": "event"
    },
    {
      "anonymous": false,
      "inputs": [
        {
          "indexed": true,
          "internalType": "address",
          "name": "sender",
          "type": "address"
        },
        {
          "indexed": false,
          "internalType": "uint256",
          "name": "amount0",
          "type": "uint256"
        },
        {
          "indexed": false,
          "internalType": "uint256",
          "name": "amount1",
          "type": "uint256"
        },
        {
          "indexed": true,
          "internalType": "address",
          "name": "to",
          "type": "address"
        }
      ],
      "name": "Burn",
      "type": "event"
    },
    {
      "anonymous": false,
      "inputs": [
        {
          "indexed": true,
          "internalType": "address",
          "name": "sender",
          "type": "address"
        },
        {
          "indexed": false,
          "internalType": "uint256",
          "name": "amount0",
          "type": "uint256"
        },
        {
          "indexed": false,
          "internalType": "uint256",
          "name": "amount1",
          "type": "uint256"
        }
      ],
      "name": "Mint",
      "type": "event"
    },
    {
      "anonymous": false,
      "inputs": [
        {
          "indexed": true,
          "internalType": "address",
          "name": "sender",
          "type": "address"
        },
        {
          "indexed": false,
          "internalType": "uint256",
          "name": "amount0In",
          "type": "uint256"
        },
        {
          "indexed": false,
          "internalType": "uint256",
          "name": "amount1In",
          "type": "uint256"
        },
        {
          "indexed": false,
          "internalType": "uint256",
          "name": "amount0Out",
          "type": "uint256"
        },
        {
          "indexed": false,
          "internalType": "uint256",
          "name": "amount1Out",
          "type": "uint256"
        },
        {
          "indexed": true,
          "internalType": "address",
          "name": "to",
          "type": "address"
        }
      ],
      "name": "Swap",
      "type": "event"
    },
    {
      "anonymous": false,
      "inputs": [
        {
          "indexed": false,
          "internalType": "uint112",
          "name": "reserve0",
          "type": "uint112"
        },
        {
          "indexed": false,
          "internalType": "uint112",
          "name": "reserve1",
          "type": "uint112"
        }
      ],
      "name": "Sync",
      "type": "event"
    },
    {
      "anonymous": false,
      "inputs": [
        {
          "indexed": true,
          "internalType": "address",
          "name": "from",
          "type": "address"
        },
        {
          "indexed": true,
          "internalType": "address",
          "name": "to",
          "type": "address"
        },
        {
          "indexed": false,
          "internalType": "uint256",
          "name": "value",
          "type": "uint256"
        }
      ],
      "name": "Transfer",
      "type": "event"
    },
    {
      "inputs": [],
      "name": "MINIMUM_LIQUIDITY",
      "outputs": [
        {
          "internalType": "uint256",
          "name": "",
          "type": "uint256"
        }
      ],
      "stateMutability": "view",
      "type": "function"
    },
    {
      "inputs": [
        {
          "internalType": "address",
          "name": "",
          "type": "address"
        },
        {
          "internalType": "address",
          "name": "",
          "type": "address"
        }
      ],
      "name": "allowance",
      "outputs": [
        {
          "internalType": "uint256",
          "name": "",
          "type": "uint256"
        }
      ],
      "stateMutability": "view",
      "type": "function"
    },
    {
      "inputs": [
        {
          "internalType": "address",
          "name": "spender",
          "type": "address"
        },
        {
          "internalType": "uint256",
          "name": "value",
          "type": "uint256"
        }
      ],
      "name": "approve",
      "outputs": [
        {
          "internalType": "bool",
          "name": "",
          "type": "bool"
        }
      ],
      "stateMutability": "nonpayable",
      "type": "function"
    },
    {
      "inputs": [
        {
          "internalType": "address",
          "name": "",
          "type": "address"
        }
      ],
      "name": "balanceOf",
      "outputs": [
        {
          "internalType": "uint256",
          "name": "",
          "type": "uint256"
        }
      ],
      "stateMutability": "view",
      "type": "function"
    },
    {
      "inputs": [
        {
          "internalType": "address",
          "name": "to",
          "type": "address"
        }
      ],
      "name": "burn",
      "outputs": [
        {
          "internalType": "uint256",
          "name": "amount0",
          "type": "uint256"
        },
        {
          "internalType": "uint256",
          "name": "amount1",
          "type": "uint256"
        }
      ],
      "stateMutability": "nonpayable",
      "type": "function"
    },
    {
      "inputs": [],
      "name": "decimals",
      "outputs": [
        {
          "internalType": "uint8",
          "name": "",
          "type": "uint8"
        }
      ],
      "stateMutability": "view",
      "type": "function"
    },
    {
      "inputs": [],
      "name": "getReserves",
      "outputs": [
        {
          "internalType": "uint112",
          "name": "_reserve0",
          "type": "uint112"
        },
        {
          "internalType": "uint112",
          "name": "_reserve1",
          "type": "uint112"
        },
        {
          "internalType": "uint32",
          "name": "_blockTimestampLast",
          "type": "uint32"
        }
      ],
      "stateMutability": "view",
      "type": "function"
    },
    {
      "inputs": [
        {
          "internalType": "address",
          "name": "_token0",
          "type": "address"
        },
        {
          "internalType": "address",
          "name": "_token1",
          "type": "address"
        }
      ],
      "name": "initialize",
      "outputs": [],
      "stateMutability": "nonpayable",
      "type": "function"
    },
    {
      "inputs": [
        {
          "internalType": "address",
          "name": "to",
          "type": "address"
        }
      ],
      "name": "mint",
      "outputs": [
        {
          "internalType": "uint256",
          "name": "liquidity",
          "type": "uint256"
        }
      ],
      "stateMutability": "nonpayable",
      "type": "function"
    },
    {
      "inputs": [],
      "name": "name",
      "outputs": [
        {
          "internalType": "string",
          "name": "",
          "type": "string"
        }
      ],
      "stateMutability": "view",
      "type": "function"
    },
    {
      "inputs": [
        {
          "internalType": "address",
          "name": "to",
          "type": "address"
        }
      ],
      "name": "skim",
      "outputs": [],
      "stateMutability": "nonpayable",
      "type": "function"
    },
    {
      "inputs": [
        {
          "internalType": "uint256",
          "name": "amount0Out",
          "type": "uint256"
        },
        {
          "internalType": "uint256",
          "name": "amount1Out",
          "type": "uint256"
        },
        {
          "internalType": "address",
          "name": "to",
          "type": "address"
        },
        {
          "internalType": "bytes",
          "name": "data",
          "type": "bytes"
        }
      ],
      "name": "swap",
      "outputs": [],
      "stateMutability": "nonpayable",
      "type": "function"
    },
    {
      "inputs": [],
      "name": "symbol",
      "outputs": [
        {
          "internalType": "string",
          "name": "",
          "type": "string"
        }
      ],
      "stateMutability": "view",
      "type": "function"
    },
    {
      "inputs": [],
      "name": "sync",
      "outputs": [],
      "stateMutability": "nonpayable",
      "type": "function"
    },
    {
      "inputs": [],
      "name": "token0",
      "outputs": [
        {
          "internalType": "address",
          "name": "",
          "type": "address"
        }
      ],
      "stateMutability": "view",
      "type": "function"
    },
    {
      "inputs": [],
      "name": "token1",
      "outputs": [
        {
          "internalType": "address",
          "name": "",
          "type": "address"
        }
      ],
      "stateMutability": "view",
      "type": "function"
    },
    {
      "inputs": [],
      "name": "totalSupply",
      "outputs": [
        {
          "internalType": "uint256",
          "name": "",
          "type": "uint256"
        }
      ],
      "stateMutability": "view",
      "type": "function"
    },
    {
      "inputs": [
        {
          "internalType": "address",
          "name": "to",
          "type": "address"
        },
        {
          "internalType": "uint256",
          "name": "value",
          "type": "uint256"
        }
      ],
      "name": "transfer",
      "outputs": [
        {
          "internalType": "bool",
          "name": "",
          "type": "bool"
        }
      ],
      "stateMutability": "nonpayable",
      "type": "function"
    },
    {
      "inputs": [
        {
          "internalType": "address",
          "name": "from",
          "type": "address"
        },
        {
          "internalType": "address",
          "name": "to",
          "type": "address"
        },
        {
          "internalType": "uint256",
          "name": "value",
          "type": "uint256"
        }
      ],
      "name": "transferFrom",
      "outputs": [
        {
          "internalType": "bool",
          "name": "",
          "type": "bool"
        }
      ],
      "stateMutability": "nonpayable",
      "type": "function"
    }
  ],
  "bytecode": "0x6080604052600160035534801561001557600080fd5b50612eed806100256000396000f3fe608060405234801561001057600080fd5b50600436106101215760003560e01c80636a627842116100ad578063ba9a7a5611610071578063ba9a7a5614610335578063bc25cf7714610353578063d21220a71461036f578063dd62ed3e1461038d578063fff6cae9146103bd57610121565b80636a6278421461025657806370a082311461028657806389afcb44146102b657806395d89b41146102e7578063a9059cbb1461030557610121565b80630dfe1681116100f45780630dfe1681146101b057806318160ddd146101ce57806323b872dd146101ec578063313ce5671461021c578063485cc9551461023a57610121565b8063022c0d9f1461012657806306fdde03146101425780630902f1ac14610160578063095ea7b314610180575b600080fd5b610140600480360381019061013b919061228f565b6103c7565b005b61014a610a52565b60405161015791906123a7565b60405180910390f35b610168610a8b565b60405161017793929190612411565b60405180910390f35b61019a60048036038101906101959190612448565b610ae8565b6040516101a791906124a3565b60405180910390f35b6101b8610aff565b6040516101c591906124cd565b60405180910390f35b6101d6610b23565b6040516101e391906124f7565b60405180910390f35b61020660048036038101906102019190612512565b610b29565b60405161021391906124a3565b60405180910390f35b610224610c78565b6040516102319190612581565b60405180910390f35b610254600480360381019061024f919061259c565b610c7d565b005b610270600480360381019061026b91906125dc565b610deb565b60405161027d91906124f7565b60405180910390f35b6102a0600480360381019061029b91906125dc565b611123565b6040516102ad91906124f7565b60405180910390f35b6102d060048036038101906102cb91906125dc565b61113b565b6040516102de929190612609565b60405180910390f35b6102ef6115c8565b6040516102fc91906123a7565b60405180910390f35b61031f600480360381019061031a9190612448565b611601565b60405161032c91906124a3565b60405180910390f35b61033d611618565b60405161034a91906124f7565b60405180910390f35b61036d600480360381019061036891906125dc565b61161e565b005b610377611870565b60405161038491906124cd565b60405180910390f35b6103a760048036038101906103a2919061259c565b611896565b6040516103b491906124f7565b60405180910390f35b6103c56118bb565b005b60016003541461040c576040517f08c379a00000000000000000000000000000000000000000000000000000000081526004016104039061267e565b60405180910390fd5b600060038190555060008511806104235750600084115b610462576040517f08c379a0000000000000000000000000000000000000000000000000000000008152600401610459906126ea565b60405180910390fd5b60008061046d610a8b565b5091509150816dffffffffffffffffffffffffffff16871080156104a05750806dffffffffffffffffffffffffffff1686105b6104df576040517f08c379a00000000000000000000000000000000000000000000000000000000081526004016104d690612756565b60405180910390fd5b60008054906101000a900473ffffffffffffffffffffffffffffffffffffffff1673ffffffffffffffffffffffffffffffffffffffff168573ffffffffffffffffffffffffffffffffffffffff16141580156105895750600160009054906101000a900473ffffffffffffffffffffffffffffffffffffffff1673ffffffffffffffffffffffffffffffffffffffff168573ffffffffffffffffffffffffffffffffffffffff1614155b6105c8576040517f08c379a00000000000000000000000000000000000000000000000000000000081526004016105bf906127c2565b60405180910390fd5b60008711156105fd576105fc60008054906101000a900473ffffffffffffffffffffffffffffffffffffffff168689611a8a565b5b600086111561063457610633600160009054906101000a900473ffffffffffffffffffffffffffffffffffffffff168688611a8a565b5b60008484905011156106b4578473ffffffffffffffffffffffffffffffffffffffff166310d1e85c33898988886040518663ffffffff1660e01b815260040161068195949392919061282f565b600060405180830381600087803b15801561069b57600080fd5b505af11580156106af573d6000803e3d6000fd5b505050505b60008060009054906101000a900473ffffffffffffffffffffffffffffffffffffffff1673ffffffffffffffffffffffffffffffffffffffff166370a08231306040518263ffffffff1660e01b815260040161071091906124cd565b602060405180830381865afa15801561072d573d6000803e3d6000fd5b505050506040513d601f19601f820116820180604052508101906107519190612892565b90506000600160009054906101000a900473ffffffffffffffffffffffffffffffffffffffff1673ffffffffffffffffffffffffffffffffffffffff166370a08231306040518263ffffffff1660e01b81526004016107b091906124cd565b602060405180830381865afa1580156107cd573d6000803e3d6000fd5b505050506040513d601f19601f820116820180604052508101906107f19190612892565b9050600089856dffffffffffffffffffffffffffff1661081191906128ee565b831161081e576000610846565b89856dffffffffffffffffffffffffffff1661083a91906128ee565b8361084591906128ee565b5b9050600089856dffffffffffffffffffffffffffff1661086691906128ee565b831161087357600061089b565b89856dffffffffffffffffffffffffffff1661088f91906128ee565b8361089a91906128ee565b5b905060008211806108ac5750600081115b6108eb576040517f08c379a00000000000000000000000000000000000000000000000000000000081526004016108e29061296e565b60405180910390fd5b60006003826108fa919061298e565b6103e886610908919061298e565b61091291906128ee565b90506000600384610923919061298e565b6103e886610931919061298e565b61093b91906128ee565b9050620f4240876dffffffffffffffffffffffffffff16896dffffffffffffffffffffffffffff1661096d919061298e565b610977919061298e565b8183610983919061298e565b10156109c4576040517f08c379a00000000000000000000000000000000000000000000000000000000081526004016109bb90612a1c565b60405180910390fd5b50506109d284848888611c14565b8873ffffffffffffffffffffffffffffffffffffffff163373ffffffffffffffffffffffffffffffffffffffff167fd78ad95fa46c994b6551d0da85fc275fe613ce37657fb8d5e3d130840159d82284848f8f604051610a359493929190612a3c565b60405180910390a350505050505060016003819055505050505050565b6040518060400160405280600a81526020017f556e69737761702056320000000000000000000000000000000000000000000081525081565b6000806000600260009054906101000a90046dffffffffffffffffffffffffffff1692506002600e9054906101000a90046dffffffffffffffffffffffffffff1691506002601c9054906101000a900463ffffffff169050909192565b6000610af5338484611d63565b6001905092915050565b60008054906101000a900473ffffffffffffffffffffffffffffffffffffffff1681565b60065481565b60007fffffffffffffffffffffffffffffffffffffffffffffffffffffffffffffffff600560008673ffffffffffffffffffffffffffffffffffffffff1673ffffffffffffffffffffffffffffffffffffffff16815260200190815260200160002060003373ffffffffffffffffffffffffffffffffffffffff1673ffffffffffffffffffffffffffffffffffffffff1681526020019081526020016000205414610c625781600560008673ffffffffffffffffffffffffffffffffffffffff1673ffffffffffffffffffffffffffffffffffffffff16815260200190815260200160002060003373ffffffffffffffffffffffffffffffffffffffff1673ffffffffffffffffffffffffffffffffffffffff1681526020019081526020016000206000828254610c5a91906128ee565b925050819055505b610c6d848484611e4e565b600190509392505050565b601281565b600073ffffffffffffffffffffffffffffffffffffffff1660008054906101000a900473ffffffffffffffffffffffffffffffffffffffff1673ffffffffffffffffffffffffffffffffffffffff16148015610d275750600073ffffffffffffffffffffffffffffffffffffffff16600160009054906101000a900473ffffffffffffffffffffffffffffffffffffffff1673ffffffffffffffffffffffffffffffffffffffff16145b610d66576040517f08c379a0000000000000000000000000000000000000000000000000000000008152600401610d5d90612acd565b60405180910390fd5b816000806101000a81548173ffffffffffffffffffffffffffffffffffffffff021916908373ffffffffffffffffffffffffffffffffffffffff16021790555080600160006101000a81548173ffffffffffffffffffffffffffffffffffffffff021916908373ffffffffffffffffffffffffffffffffffffffff1602179055505050565b6000600160035414610e32576040517f08c379a0000000000000000000000000000000000000000000000000000000008152600401610e299061267e565b60405180910390fd5b6000600381905550600080610e45610a8b565b509150915060008060009054906101000a900473ffffffffffffffffffffffffffffffffffffffff1673ffffffffffffffffffffffffffffffffffffffff166370a08231306040518263ffffffff1660e01b8152600401610ea691906124cd565b602060405180830381865afa158015610ec3573d6000803e3d6000fd5b505050506040513d601f19601f82011682018060405250810190610ee79190612892565b90506000600160009054906101000a900473ffffffffffffffffffffffffffffffffffffffff1673ffffffffffffffffffffffffffffffffffffffff166370a08231306040518263ffffffff1660e01b8152600401610f4691906124cd565b602060405180830381865afa158015610f63573d6000803e3d6000fd5b505050506040513d601f19601f82011682018060405250810190610f879190612892565b90506000846dffffffffffffffffffffffffffff1683610fa791906128ee565b90506000846dffffffffffffffffffffffffffff1683610fc791906128ee565b9050600060065490506000810361100d576103e8610fef8385610fea919061298e565b611f64565b610ff991906128ee565b975061100860006103e8611fc1565b611066565b611063876dffffffffffffffffffffffffffff16828561102d919061298e565b6110379190612b1c565b876dffffffffffffffffffffffffffff168385611054919061298e565b61105e9190612b1c565b61209a565b97505b600088116110a9576040517f08c379a00000000000000000000000000000000000000000000000000000000081526004016110a090612bbf565b60405180910390fd5b6110b38989611fc1565b6110bf85858989611c14565b3373ffffffffffffffffffffffffffffffffffffffff167f4c209b5fc8ad50758f13e2e1088ba56a560dff690a1c6fef26394f4c03821c4f8484604051611107929190612609565b60405180910390a2505050505050506001600381905550919050565b60046020528060005260406000206000915090505481565b600080600160035414611183576040517f08c379a000000000000000000000000000000000000000000000000000000000815260040161117a9061267e565b60405180910390fd5b6000600381905550600080611196610a8b565b509150915060008060009054906101000a900473ffffffffffffffffffffffffffffffffffffffff1673ffffffffffffffffffffffffffffffffffffffff166370a08231306040518263ffffffff1660e01b81526004016111f791906124cd565b602060405180830381865afa158015611214573d6000803e3d6000fd5b505050506040513d601f19601f820116820180604052508101906112389190612892565b90506000600160009054906101000a900473ffffffffffffffffffffffffffffffffffffffff1673ffffffffffffffffffffffffffffffffffffffff166370a08231306040518263ffffffff1660e01b815260040161129791906124cd565b602060405180830381865afa1580156112b4573d6000803e3d6000fd5b505050506040513d601f19601f820116820180604052508101906112d89190612892565b90506000600460003073ffffffffffffffffffffffffffffffffffffffff1673ffffffffffffffffffffffffffffffffffffffff16815260200190815260200160002054905060006006549050808483611332919061298e565b61133c9190612b1c565b975080838361134b919061298e565b6113559190612b1c565b96506000881180156113675750600087115b6113a6576040517f08c379a000000000000000000000000000000000000000000000000000000000815260040161139d90612c51565b60405180910390fd5b6113b030836120b3565b6113db60008054906101000a900473ffffffffffffffffffffffffffffffffffffffff168a8a611a8a565b611408600160009054906101000a900473ffffffffffffffffffffffffffffffffffffffff168a89611a8a565b60008054906101000a900473ffffffffffffffffffffffffffffffffffffffff1673ffffffffffffffffffffffffffffffffffffffff166370a08231306040518263ffffffff1660e01b815260040161146191906124cd565b602060405180830381865afa15801561147e573d6000803e3d6000fd5b505050506040513d601f19601f820116820180604052508101906114a29190612892565b9350600160009054906101000a900473ffffffffffffffffffffffffffffffffffffffff1673ffffffffffffffffffffffffffffffffffffffff166370a08231306040518263ffffffff1660e01b81526004016114ff91906124cd565b602060405180830381865afa15801561151c573d6000803e3d6000fd5b505050506040513d601f19601f820116820180604052508101906115409190612892565b925061154e84848888611c14565b8873ffffffffffffffffffffffffffffffffffffffff163373ffffffffffffffffffffffffffffffffffffffff167fdccd412f0b1252819cb1fd330b93224ca42612892bb3f4f789976e6d819364968a8a6040516115ad929190612609565b60405180910390a35050505050506001600381905550915091565b6040518060400160405280600681526020017f554e492d5632000000000000000000000000000000000000000000000000000081525081565b600061160e338484611e4e565b6001905092915050565b6103e881565b600160035414611663576040517f08c379a000000000000000000000000000000000000000000000000000000000815260040161165a9061267e565b60405180910390fd5b600060038190555061176660008054906101000a900473ffffffffffffffffffffffffffffffffffffffff1682600260009054906101000a90046dffffffffffffffffffffffffffff166dffffffffffffffffffffffffffff1660008054906101000a900473ffffffffffffffffffffffffffffffffffffffff1673ffffffffffffffffffffffffffffffffffffffff166370a08231306040518263ffffffff1660e01b815260040161171691906124cd565b602060405180830381865afa158015611733573d6000803e3d6000fd5b505050506040513d601f19601f820116820180604052508101906117579190612892565b61176191906128ee565b611a8a565b611865600160009054906101000a900473ffffffffffffffffffffffffffffffffffffffff16826002600e9054906101000a90046dffffffffffffffffffffffffffff166dffffffffffffffffffffffffffff16600160009054906101000a900473ffffffffffffffffffffffffffffffffffffffff1673ffffffffffffffffffffffffffffffffffffffff166370a08231306040518263ffffffff1660e01b815260040161181591906124cd565b602060405180830381865afa158015611832573d6000803e3d6000fd5b505050506040513d601f19601f820116820180604052508101906118569190612892565b61186091906128ee565b611a8a565b600160038190555050565b600160009054906101000a900473ffffffffffffffffffffffffffffffffffffffff1681565b6005602052816000526040600020602052806000526040600020600091509150505481565b600160035414611900576040517f08c379a00000000000000000000000000000000000000000000000000000000081526004016118f79061267e565b60405180910390fd5b6000600381905550611a8060008054906101000a900473ffffffffffffffffffffffffffffffffffffffff1673ffffffffffffffffffffffffffffffffffffffff166370a08231306040518263ffffffff1660e01b815260040161196491906124cd565b602060405180830381865afa158015611981573d6000803e3d6000fd5b505050506040513d601f19601f820116820180604052508101906119a59190612892565b600160009054906101000a900473ffffffffffffffffffffffffffffffffffffffff1673ffffffffffffffffffffffffffffffffffffffff166370a08231306040518263ffffffff1660e01b8152600401611a0091906124cd565b602060405180830381865afa158015611a1d573d6000803e3d6000fd5b505050506040513d601f19601f82011682018060405250810190611a419190612892565b600260009054906101000a90046dffffffffffffffffffffffffffff166002600e9054906101000a90046dffffffffffffffffffffffffffff16611c14565b6001600381905550565b6000808473ffffffffffffffffffffffffffffffffffffffff166040518060400160405280601981526020017f7472616e7366657228616464726573732c75696e743235362900000000000000815250805190602001208585604051602401611af4929190612c71565b604051602081830303815290604052907bffffffffffffffffffffffffffffffffffffffffffffffffffffffff19166020820180517bffffffffffffffffffffffffffffffffffffffffffffffffffffffff8381831617835250505050604051611b5e9190612ce1565b6000604051808303816000865af19150503d8060008114611b9b576040519150601f19603f3d011682016040523d82523d6000602084013e611ba0565b606091505b5091509150818015611bce5750600081511480611bcd575080806020019051810190611bcc9190612d24565b5b5b611c0d576040517f08c379a0000000000000000000000000000000000000000000000000000000008152600401611c0490612d9d565b60405180910390fd5b5050505050565b6dffffffffffffffffffffffffffff80168411158015611c4457506dffffffffffffffffffffffffffff80168311155b611c83576040517f08c379a0000000000000000000000000000000000000000000000000000000008152600401611c7a90612e09565b60405180910390fd5b600064010000000042611c969190612e29565b905084600260006101000a8154816dffffffffffffffffffffffffffff02191690836dffffffffffffffffffffffffffff160217905550836002600e6101000a8154816dffffffffffffffffffffffffffff02191690836dffffffffffffffffffffffffffff160217905550806002601c6101000a81548163ffffffff021916908363ffffffff1602179055507f1c411e9a96e071241c2f21f7726b17ae89e3cab4c78be50e062b03a9fffbbad18585604051611d54929190612e5a565b60405180910390a15050505050565b80600560008573ffffffffffffffffffffffffffffffffffffffff1673ffffffffffffffffffffffffffffffffffffffff16815260200190815260200160002060008473ffffffffffffffffffffffffffffffffffffffff1673ffffffffffffffffffffffffffffffffffffffff168152602001908152602001600020819055508173ffffffffffffffffffffffffffffffffffffffff168373ffffffffffffffffffffffffffffffffffffffff167f8c5be1e5ebec7d5bd14f71427d1e84f3dd0314c0f7b2291e5b200ac8c7c3b92583604051611e4191906124f7565b60405180910390a3505050565b80600460008573ffffffffffffffffffffffffffffffffffffffff1673ffffffffffffffffffffffffffffffffffffffff1681526020019081526020016000206000828254611e9d91906128ee565b9250508190555080600460008473ffffffffffffffffffffffffffffffffffffffff1673ffffffffffffffffffffffffffffffffffffffff1681526020019081526020016000206000828254611ef39190612e83565b925050819055508173ffffffffffffffffffffffffffffffffffffffff168373ffffffffffffffffffffffffffffffffffffffff167fddf252ad1be2c89b69c2b068fc378daa952ba7f163c4a11628f55a4df523b3ef83604051611f5791906124f7565b60405180910390a3505050565b6000806002600184611f769190612e83565b611f809190612b1c565b90508291505b81811015611fbb578091506002818285611fa09190612b1c565b611faa9190612e83565b611fb49190612b1c565b9050611f86565b50919050565b8060066000828254611fd39190612e83565b9250508190555080600460008473ffffffffffffffffffffffffffffffffffffffff1673ffffffffffffffffffffffffffffffffffffffff16815260200190815260200160002060008282546120299190612e83565b925050819055508173ffffffffffffffffffffffffffffffffffffffff16600073ffffffffffffffffffffffffffffffffffffffff167fddf252ad1be2c89b69c2b068fc378daa952ba7f163c4a11628f55a4df523b3ef8360405161208e91906124f7565b60405180910390a35050565b60008183106120a957816120ab565b825b905092915050565b80600460008473ffffffffffffffffffffffffffffffffffffffff1673ffffffffffffffffffffffffffffffffffffffff168152602001908152602001600020600082825461210291906128ee565b92505081905550806006600082825461211b91906128ee565b92505081905550600073ffffffffffffffffffffffffffffffffffffffff168273ffffffffffffffffffffffffffffffffffffffff167fddf252ad1be2c89b69c2b068fc378daa952ba7f163c4a11628f55a4df523b3ef8360405161218091906124f7565b60405180910390a35050565b600080fd5b600080fd5b6000819050919050565b6121a981612196565b81146121b457600080fd5b50565b6000813590506121c6816121a0565b92915050565b600073ffffffffffffffffffffffffffffffffffffffff82169050919050565b60006121f7826121cc565b9050919050565b612207816121ec565b811461221257600080fd5b50565b600081359050612224816121fe565b92915050565b600080fd5b600080fd5b600080fd5b60008083601f84011261224f5761224e61222a565b5b8235905067ffffffffffffffff81111561226c5761226b61222f565b5b60208301915083600182028301111561228857612287612234565b5b9250929050565b6000806000806000608086880312156122ab576122aa61218c565b5b60006122b9888289016121b7565b95505060206122ca888289016121b7565b94505060406122db88828901612215565b935050606086013567ffffffffffffffff8111156122fc576122fb612191565b5b61230888828901612239565b92509250509295509295909350565b600081519050919050565b600082825260208201905092915050565b60005b83811015612351578082015181840152602081019050612336565b60008484015250505050565b6000601f19601f8301169050919050565b600061237982612317565b6123838185612322565b9350612393818560208601612333565b61239c8161235d565b840191505092915050565b600060208201905081810360008301526123c1818461236e565b905092915050565b60006dffffffffffffffffffffffffffff82169050919050565b6123ec816123c9565b82525050565b600063ffffffff82169050919050565b61240b816123f2565b82525050565b600060608201905061242660008301866123e3565b61243360208301856123e3565b6124406040830184612402565b949350505050565b6000806040838503121561245f5761245e61218c565b5b600061246d85828601612215565b925050602061247e858286016121b7565b9150509250929050565b60008115159050919050565b61249d81612488565b82525050565b60006020820190506124b86000830184612494565b92915050565b6124c7816121ec565b82525050565b60006020820190506124e260008301846124be565b92915050565b6124f181612196565b82525050565b600060208201905061250c60008301846124e8565b92915050565b60008060006060848603121561252b5761252a61218c565b5b600061253986828701612215565b935050602061254a86828701612215565b925050604061255b868287016121b7565b9150509250925092565b600060ff82169050919050565b61257b81612565565b82525050565b60006020820190506125966000830184612572565b92915050565b600080604083850312156125b3576125b261218c565b5b60006125c185828601612215565b92505060206125d285828601612215565b9150509250929050565b6000602082840312156125f2576125f161218c565b5b600061260084828501612215565b91505092915050565b600060408201905061261e60008301856124e8565b61262b60208301846124e8565b9392505050565b7f554e493a204c4f434b4544000000000000000000000000000000000000000000600082015250565b6000612668600b83612322565b915061267382612632565b602082019050919050565b600060208201905081810360008301526126978161265b565b9050919050565b7f554e493a20494e53554646494349454e545f4f55545055545f414d4f554e5400600082015250565b60006126d4601f83612322565b91506126df8261269e565b602082019050919050565b60006020820190508181036000830152612703816126c7565b9050919050565b7f554e493a20494e53554646494349454e545f4c49515549444954590000000000600082015250565b6000612740601b83612322565b915061274b8261270a565b602082019050919050565b6000602082019050818103600083015261276f81612733565b9050919050565b7f554e493a20494e56414c49445f544f0000000000000000000000000000000000600082015250565b60006127ac600f83612322565b91506127b782612776565b602082019050919050565b600060208201905081810360008301526127db8161279f565b9050919050565b600082825260208201905092915050565b82818337600083830152505050565b600061280e83856127e2565b935061281b8385846127f3565b6128248361235d565b840190509392505050565b600060808201905061284460008301886124be565b61285160208301876124e8565b61285e60408301866124e8565b8181036060830152612871818486612802565b90509695505050505050565b60008151905061288c816121a0565b92915050565b6000602082840312156128a8576128a761218c565b5b60006128b68482850161287d565b91505092915050565b7f4e487b7100000000000000000000000000000000000000000000000000000000600052601160045260246000fd5b60006128f982612196565b915061290483612196565b925082820390508181111561291c5761291b6128bf565b5b92915050565b7f554e493a20494e53554646494349454e545f494e5055545f414d4f554e540000600082015250565b6000612958601e83612322565b915061296382612922565b602082019050919050565b600060208201905081810360008301526129878161294b565b9050919050565b600061299982612196565b91506129a483612196565b92508282026129b281612196565b915082820484148315176129c9576129c86128bf565b5b5092915050565b7f554e493a204b0000000000000000000000000000000000000000000000000000600082015250565b6000612a06600683612322565b9150612a11826129d0565b602082019050919050565b60006020820190508181036000830152612a35816129f9565b9050919050565b6000608082019050612a5160008301876124e8565b612a5e60208301866124e8565b612a6b60408301856124e8565b612a7860608301846124e8565b95945050505050565b7f554e493a20414c52454144595f494e495449414c495a45440000000000000000600082015250565b6000612ab7601883612322565b9150612ac282612a81565b602082019050919050565b60006020820190508181036000830152612ae681612aaa565b9050919050565b7f4e487b7100000000000000000000000000000000000000000000000000000000600052601260045260246000fd5b6000612b2782612196565b9150612b3283612196565b925082612b4257612b41612aed565b5b828204905092915050565b7f554e493a20494e53554646494349454e545f4c49515549444954595f4d494e5460008201527f4544000000000000000000000000000000000000000000000000000000000000602082015250565b6000612ba9602283612322565b9150612bb482612b4d565b604082019050919050565b60006020820190508181036000830152612bd881612b9c565b9050919050565b7f554e493a20494e53554646494349454e545f4c49515549444954595f4255524e60008201527f4544000000000000000000000000000000000000000000000000000000000000602082015250565b6000612c3b602283612322565b9150612c4682612bdf565b604082019050919050565b60006020820190508181036000830152612c6a81612c2e565b9050919050565b6000604082019050612c8660008301856124be565b612c9360208301846124e8565b9392505050565b600081519050919050565b600081905092915050565b6000612cbb82612c9a565b612cc58185612ca5565b9350612cd5818560208601612333565b80840191505092915050565b6000612ced8284612cb0565b915081905092915050565b612d0181612488565b8114612d0c57600080fd5b50565b600081519050612d1e81612cf8565b92915050565b600060208284031215612d3a57612d3961218c565b5b6000612d4884828501612d0f565b91505092915050565b7f554e493a205452414e534645525f4641494c4544000000000000000000000000600082015250565b6000612d87601483612322565b9150612d9282612d51565b602082019050919050565b60006020820190508181036000830152612db681612d7a565b9050919050565b7f554e493a204f564552464c4f5700000000000000000000000000000000000000600082015250565b6000612df3600d83612322565b9150612dfe82612dbd565b602082019050919050565b60006020820190508181036000830152612e2281612de6565b9050919050565b6000612e3482612196565b9150612e3f83612196565b925082612e4f57612e4e612aed565b5b828206905092915050565b6000604082019050612e6f60008301856123e3565b612e7c60208301846123e3565b9392505050565b6000612e8e82612196565b9150612e9983612196565b9250828201905080821115612eb157612eb06128bf565b5b9291505056fea2646970667358221220a36fcec7061e87b95cea2f45a032f5afae24698a469800579d59c608055ba2c464736f6c63430008140033",
  "linkReferences": {},
  "deployedLinkReferences": {}
}