{
  "_format": "hh-sol-artifact-1",
  "contractName": "UniswapV2Router02",
  "sourceName": "contracts/UniswapV2Router02.sol",
  "abi": [
    {
      "inputs": [
        {
          "internalType": "address",
          "name": "_factory",
          "type": "address"
        },
        {
          "internalType": "address",
          "name": "_WETH",
          "type": "address"
        }
      ],
      "stateMutability": "nonpayable",
      "type": "constructor"
    },
    {
      "anonymous": false,
      "inputs": [
        {
          "indexed": true,
          "internalType": "address",
          "name": "owner",
          "type": "address"
        },
        {
          "indexed": true,
          "internalType": "address",
          "name": "spender",
          "type": "address"
        },
        {
          "indexed": false,
          "internalType": "uint256",
          "name": "value",
          "type": "uint256"
        }
      ],
      "name": "Approval",
      "type": "event"
    },
    {
      "inputs": [],
      "name": "WETH",
      "outputs": [
        {
          "internalType": "address",
          "name": "",
          "type": "address"
        }
      ],
      "stateMutability": "view",
      "type": "function"
    },
    {
      "inputs": [
        {
          "internalType": "address",
          "name": "tokenA",
          "type": "address"
        },
        {
          "internalType": "address",
          "name": "tokenB",
          "type": "address"
        },
        {
          "internalType": "uint256",
          "name": "amountADesired",
          "type": "uint256"
        },
        {
          "internalType": "uint256",
          "name": "amountBDesired",
          "type": "uint256"
        },
        {
          "internalType": "uint256",
          "name": "amountAMin",
          "type": "uint256"
        },
        {
          "internalType": "uint256",
          "name": "amountBMin",
          "type": "uint256"
        },
        {
          "internalType": "address",
          "name": "to",
          "type": "address"
        },
        {
          "internalType": "uint256",
          "name": "deadline",
          "type": "uint256"
        }
      ],
      "name": "addLiquidity",
      "outputs": [
        {
          "internalType": "uint256",
          "name": "amountA",
          "type": "uint256"
        },
        {
          "internalType": "uint256",
          "name": "amountB",
          "type": "uint256"
        },
        {
          "internalType": "uint256",
          "name": "liquidity",
          "type": "uint256"
        }
      ],
      "stateMutability": "nonpayable",
      "type": "function"
    },
    {
      "inputs": [
        {
          "internalType": "address",
          "name": "token",
          "type": "address"
        },
        {
          "internalType": "uint256",
          "name": "amountTokenDesired",
          "type": "uint256"
        },
        {
          "internalType": "uint256",
          "name": "amountTokenMin",
          "type": "uint256"
        },
        {
          "internalType": "uint256",
          "name": "amountETHMin",
          "type": "uint256"
        },
        {
          "internalType": "address",
          "name": "to",
          "type": "address"
        },
        {
          "internalType": "uint256",
          "name": "deadline",
          "type": "uint256"
        }
      ],
      "name": "addLiquidityETH",
      "outputs": [
        {
          "internalType": "uint256",
          "name": "amountToken",
          "type": "uint256"
        },
        {
          "internalType": "uint256",
          "name": "amountETH",
          "type": "uint256"
        },
        {
          "internalType": "uint256",
          "name": "liquidity",
          "type": "uint256"
        }
      ],
      "stateMutability": "payable",
      "type": "function"
    },
    {
      "inputs": [],
      "name": "factory",
      "outputs": [
        {
          "internalType": "address",
          "name": "",
          "type": "address"
        }
      ],
      "stateMutability": "view",
      "type": "function"
    },
    {
      "inputs": [
        {
          "internalType": "uint256",
          "name": "amountOut",
          "type": "uint256"
        },
        {
          "internalType": "address",
          "name": "tokenIn",
          "type": "address"
        },
        {
          "internalType": "address",
          "name": "tokenOut",
          "type": "address"
        }
      ],
      "name": "getAmountIn",
      "outputs": [
        {
          "internalType": "uint256",
          "name": "amountIn",
          "type": "uint256"
        }
      ],
      "stateMutability": "view",
      "type": "function"
    },
    {
      "inputs": [
        {
          "internalType": "uint256",
          "name": "amountIn",
          "type": "uint256"
        },
        {
          "internalType": "address",
          "name": "tokenIn",
          "type": "address"
        },
        {
          "internalType": "address",
          "name": "tokenOut",
          "type": "address"
        }
      ],
      "name": "getAmountOut",
      "outputs": [
        {
          "internalType": "uint256",
          "name": "amountOut",
          "type": "uint256"
        }
      ],
      "stateMutability": "view",
      "type": "function"
    },
    {
      "inputs": [
        {
          "internalType": "uint256",
          "name": "amountOut",
          "type": "uint256"
        },
        {
          "internalType": "address[]",
          "name": "path",
          "type": "address[]"
        }
      ],
      "name": "getAmountsIn",
      "outputs": [
        {
          "internalType": "uint256[]",
          "name": "amounts",
          "type": "uint256[]"
        }
      ],
      "stateMutability": "view",
      "type": "function"
    },
    {
      "inputs": [
        {
          "internalType": "uint256",
          "name": "amountIn",
          "type": "uint256"
        },
        {
          "internalType": "address[]",
          "name": "path",
          "type": "address[]"
        }
      ],
      "name": "getAmountsOut",
      "outputs": [
        {
          "internalType": "uint256[]",
          "name": "amounts",
          "type": "uint256[]"
        }
      ],
      "stateMutability": "view",
      "type": "function"
    },
    {
      "inputs": [
        {
          "internalType": "address",
          "name": "tokenA",
          "type": "address"
        },
        {
          "internalType": "address",
          "name": "tokenB",
          "type": "address"
        },
        {
          "internalType": "uint256",
          "name": "liquidity",
          "type": "uint256"
        },
        {
          "internalType": "uint256",
          "name": "amountAMin",
          "type": "uint256"
        },
        {
          "internalType": "uint256",
          "name": "amountBMin",
          "type": "uint256"
        },
        {
          "internalType": "address",
          "name": "to",
          "type": "address"
        },
        {
          "internalType": "uint256",
          "name": "deadline",
          "type": "uint256"
        }
      ],
      "name": "removeLiquidity",
      "outputs": [
        {
          "internalType": "uint256",
          "name": "amountA",
          "type": "uint256"
        },
        {
          "internalType": "uint256",
          "name": "amountB",
          "type": "uint256"
        }
      ],
      "stateMutability": "nonpayable",
      "type": "function"
    },
    {
      "inputs": [
        {
          "internalType": "uint256",
          "name": "amountOutMin",
          "type": "uint256"
        },
        {
          "internalType": "address[]",
          "name": "path",
          "type": "address[]"
        },
        {
          "internalType": "address",
          "name": "to",
          "type": "address"
        },
        {
          "internalType": "uint256",
          "name": "deadline",
          "type": "uint256"
        }
      ],
      "name": "swapExactETHForTokens",
      "outputs": [
        {
          "internalType": "uint256[]",
          "name": "amounts",
          "type": "uint256[]"
        }
      ],
      "stateMutability": "payable",
      "type": "function"
    },
    {
      "inputs": [
        {
          "internalType": "uint256",
          "name": "amountIn",
          "type": "uint256"
        },
        {
          "internalType": "uint256",
          "name": "amountOutMin",
          "type": "uint256"
        },
        {
          "internalType": "address[]",
          "name": "path",
          "type": "address[]"
        },
        {
          "internalType": "address",
          "name": "to",
          "type": "address"
        },
        {
          "internalType": "uint256",
          "name": "deadline",
          "type": "uint256"
        }
      ],
      "name": "swapExactTokensForETH",
      "outputs": [
        {
          "internalType": "uint256[]",
          "name": "amounts",
          "type": "uint256[]"
        }
      ],
      "stateMutability": "nonpayable",
      "type": "function"
    },
    {
      "inputs": [
        {
          "internalType": "uint256",
          "name": "amountIn",
          "type": "uint256"
        },
        {
          "internalType": "uint256",
          "name": "amountOutMin",
          "type": "uint256"
        },
        {
          "internalType": "address[]",
          "name": "path",
          "type": "address[]"
        },
        {
          "internalType": "address",
          "name": "to",
          "type": "address"
        },
        {
          "internalType": "uint256",
          "name": "deadline",
          "type": "uint256"
        }
      ],
      "name": "swapExactTokensForTokens",
      "outputs": [
        {
          "internalType": "uint256[]",
          "name": "amounts",
          "type": "uint256[]"
        }
      ],
      "stateMutability": "nonpayable",
      "type": "function"
    },
    {
      "inputs": [
        {
          "internalType": "uint256",
          "name": "amountOut",
          "type": "uint256"
        },
        {
          "internalType": "uint256",
          "name": "amountInMax",
          "type": "uint256"
        },
        {
          "internalType": "address[]",
          "name": "path",
          "type": "address[]"
        },
        {
          "internalType": "address",
          "name": "to",
          "type": "address"
        },
        {
          "internalType": "uint256",
          "name": "deadline",
          "type": "uint256"
        }
      ],
      "name": "swapTokensForExactETH",
      "outputs": [
        {
          "internalType": "uint256[]",
          "name": "amounts",
          "type": "uint256[]"
        }
      ],
      "stateMutability": "nonpayable",
      "type": "function"
    },
    {
      "inputs": [
        {
          "internalType": "uint256",
          "name": "amountOut",
          "type": "uint256"
        },
        {
          "internalType": "uint256",
          "name": "amountInMax",
          "type": "uint256"
        },
        {
          "internalType": "address[]",
          "name": "path",
          "type": "address[]"
        },
        {
          "internalType": "address",
          "name": "to",
          "type": "address"
        },
        {
          "internalType": "uint256",
          "name": "deadline",
          "type": "uint256"
        }
      ],
      "name": "swapTokensForExactTokens",
      "outputs": [
        {
          "internalType": "uint256[]",
          "name": "amounts",
          "type": "uint256[]"
        }
      ],
      "stateMutability": "nonpayable",
      "type": "function"
    },
    {
      "stateMutability": "payable",
      "type": "receive"
    }
  ],
  "bytecode": "0x60c06040523480156200001157600080fd5b50604051620043a8380380620043a8833981810160405281019062000037919062000111565b8173ffffffffffffffffffffffffffffffffffffffff1660808173ffffffffffffffffffffffffffffffffffffffff16815250508073ffffffffffffffffffffffffffffffffffffffff1660a08173ffffffffffffffffffffffffffffffffffffffff1681525050505062000158565b600080fd5b600073ffffffffffffffffffffffffffffffffffffffff82169050919050565b6000620000d982620000ac565b9050919050565b620000eb81620000cc565b8114620000f757600080fd5b50565b6000815190506200010b81620000e0565b92915050565b600080604083850312156200012b576200012a620000a7565b5b60006200013b85828601620000fa565b92505060206200014e85828601620000fa565b9150509250929050565b60805160a0516141a56200020360003960008181610650015281816108bf01528181610d7501528181610fd801528181611304015281816114710152818161150d0152818161186601528181611fed0152818161205e01528181612150015281816121e001526122610152600081816118d301528181611b8c01528181611d8701528181611e590152818161202101528181612113015281816123ad015261294c01526141a56000f3fe6080604052600436106100e15760003560e01c80638803dbee1161007f578063c45a015511610059578063c45a015514610331578063d06ca61f1461035c578063e8e3370014610399578063f305d719146103d8576100e8565b80638803dbee1461028b578063ad5c4648146102c8578063baa2abde146102f3576100e8565b806338ed1739116100bb57806338ed1739146101a45780634a25d94a146101e15780635e1e63251461021e5780637ff36ab51461025b576100e8565b80630a9a2b72146100ed57806318cbafe51461012a5780631f00ca7414610167576100e8565b366100e857005b600080fd5b3480156100f957600080fd5b50610114600480360381019061010f9190612dbd565b61040a565b6040516101219190612e1f565b60405180910390f35b34801561013657600080fd5b50610151600480360381019061014c9190612e9f565b610608565b60405161015e9190612ff7565b60405180910390f35b34801561017357600080fd5b5061018e60048036038101906101899190613168565b6109ab565b60405161019b9190612ff7565b60405180910390f35b3480156101b057600080fd5b506101cb60048036038101906101c69190612e9f565b610b31565b6040516101d89190612ff7565b60405180910390f35b3480156101ed57600080fd5b5061020860048036038101906102039190612e9f565b610d2d565b6040516102159190612ff7565b60405180910390f35b34801561022a57600080fd5b5061024560048036038101906102409190612dbd565b6110c4565b6040516102529190612e1f565b60405180910390f35b610275600480360381019061027091906131c4565b6112bc565b6040516102829190612ff7565b60405180910390f35b34801561029757600080fd5b506102b260048036038101906102ad9190612e9f565b611674565b6040516102bf9190612ff7565b60405180910390f35b3480156102d457600080fd5b506102dd611864565b6040516102ea919061325b565b60405180910390f35b3480156102ff57600080fd5b5061031a60048036038101906103159190613276565b611888565b604051610328929190613318565b60405180910390f35b34801561033d57600080fd5b50610346611b8a565b604051610353919061325b565b60405180910390f35b34801561036857600080fd5b50610383600480360381019061037e9190613168565b611bae565b6040516103909190612ff7565b60405180910390f35b3480156103a557600080fd5b506103c060048036038101906103bb9190613341565b611d24565b6040516103cf939291906133f7565b60405180910390f35b6103f260048036038101906103ed919061342e565b611f9e565b604051610401939291906133f7565b60405180910390f35b600080841161044e576040517f08c379a00000000000000000000000000000000000000000000000000000000081526004016104459061353e565b60405180910390fd5b600061045a84846123a8565b90506000808273ffffffffffffffffffffffffffffffffffffffff16630902f1ac6040518163ffffffff1660e01b8152600401606060405180830381865afa1580156104aa573d6000803e3d6000fd5b505050506040513d601f19601f820116820180604052508101906104ce91906135e0565b50915091506000808673ffffffffffffffffffffffffffffffffffffffff168873ffffffffffffffffffffffffffffffffffffffff161061053057826dffffffffffffffffffffffffffff16846dffffffffffffffffffffffffffff16610553565b836dffffffffffffffffffffffffffff16836dffffffffffffffffffffffffffff165b915091506000821180156105675750600081115b6105a6576040517f08c379a000000000000000000000000000000000000000000000000000000000815260040161059d906136a5565b60405180910390fd5b60006103e88a846105b791906136f4565b6105c191906136f4565b905060006103e58b846105d49190613736565b6105de91906136f4565b9050600181836105ee9190613799565b6105f891906137ca565b9750505050505050509392505050565b6060814281101561064e576040517f08c379a00000000000000000000000000000000000000000000000000000000081526004016106459061384a565b60405180910390fd5b7f000000000000000000000000000000000000000000000000000000000000000073ffffffffffffffffffffffffffffffffffffffff1686866001898990506106979190613736565b8181106106a7576106a661386a565b5b90506020020160208101906106bc9190613899565b73ffffffffffffffffffffffffffffffffffffffff1614610712576040517f08c379a000000000000000000000000000000000000000000000000000000000815260040161070990613912565b60405180910390fd5b61075d88878780806020026020016040519081016040528093929190818152602001838360200280828437600081840152601f19601f82011690508083019250505050505050611bae565b915086826001845161076f9190613736565b815181106107805761077f61386a565b5b602002602001015110156107c9576040517f08c379a00000000000000000000000000000000000000000000000000000000081526004016107c09061353e565b60405180910390fd5b610871868660008181106107e0576107df61386a565b5b90506020020160208101906107f59190613899565b336108508989600081811061080d5761080c61386a565b5b90506020020160208101906108229190613899565b8a8a60018181106108365761083561386a565b5b905060200201602081019061084b9190613899565b6123a8565b856000815181106108645761086361386a565b5b60200260200101516124c2565b6108bd82878780806020026020016040519081016040528093929190818152602001838360200280828437600081840152601f19601f82011690508083019250505050505050306125fb565b7f000000000000000000000000000000000000000000000000000000000000000073ffffffffffffffffffffffffffffffffffffffff16632e1a7d4d83600185516109089190613736565b815181106109195761091861386a565b5b60200260200101516040518263ffffffff1660e01b815260040161093d9190612e1f565b600060405180830381600087803b15801561095757600080fd5b505af115801561096b573d6000803e3d6000fd5b505050506109a08483600185516109829190613736565b815181106109935761099261386a565b5b6020026020010151612845565b509695505050505050565b60606002825110156109f2576040517f08c379a00000000000000000000000000000000000000000000000000000000081526004016109e990613912565b60405180910390fd5b815167ffffffffffffffff811115610a0d57610a0c61302a565b5b604051908082528060200260200182016040528015610a3b5781602001602082028036833780820191505090505b509050828160018351610a4e9190613736565b81518110610a5f57610a5e61386a565b5b602002602001018181525050600060018351610a7b9190613736565b90505b6000811115610b2a57610aec828281518110610a9d57610a9c61386a565b5b602002602001015184600184610ab39190613736565b81518110610ac457610ac361386a565b5b6020026020010151858481518110610adf57610ade61386a565b5b602002602001015161040a565b82600183610afa9190613736565b81518110610b0b57610b0a61386a565b5b6020026020010181815250508080610b2290613932565b915050610a7e565b5092915050565b60608142811015610b77576040517f08c379a0000000000000000000000000000000000000000000000000000000008152600401610b6e9061384a565b60405180910390fd5b610bc288878780806020026020016040519081016040528093929190818152602001838360200280828437600081840152601f19601f82011690508083019250505050505050611bae565b9150868260018451610bd49190613736565b81518110610be557610be461386a565b5b60200260200101511015610c2e576040517f08c379a0000000000000000000000000000000000000000000000000000000008152600401610c259061353e565b60405180910390fd5b610cd686866000818110610c4557610c4461386a565b5b9050602002016020810190610c5a9190613899565b33610cb589896000818110610c7257610c7161386a565b5b9050602002016020810190610c879190613899565b8a8a6001818110610c9b57610c9a61386a565b5b9050602002016020810190610cb09190613899565b6123a8565b85600081518110610cc957610cc861386a565b5b60200260200101516124c2565b610d2282878780806020026020016040519081016040528093929190818152602001838360200280828437600081840152601f19601f82011690508083019250505050505050866125fb565b509695505050505050565b60608142811015610d73576040517f08c379a0000000000000000000000000000000000000000000000000000000008152600401610d6a9061384a565b60405180910390fd5b7f000000000000000000000000000000000000000000000000000000000000000073ffffffffffffffffffffffffffffffffffffffff168686600189899050610dbc9190613736565b818110610dcc57610dcb61386a565b5b9050602002016020810190610de19190613899565b73ffffffffffffffffffffffffffffffffffffffff1614610e37576040517f08c379a0000000000000000000000000000000000000000000000000000000008152600401610e2e90613912565b60405180910390fd5b610e8288878780806020026020016040519081016040528093929190818152602001838360200280828437600081840152601f19601f820116905080830192505050505050506109ab565b91508682600081518110610e9957610e9861386a565b5b60200260200101511115610ee2576040517f08c379a0000000000000000000000000000000000000000000000000000000008152600401610ed9906139cd565b60405180910390fd5b610f8a86866000818110610ef957610ef861386a565b5b9050602002016020810190610f0e9190613899565b33610f6989896000818110610f2657610f2561386a565b5b9050602002016020810190610f3b9190613899565b8a8a6001818110610f4f57610f4e61386a565b5b9050602002016020810190610f649190613899565b6123a8565b85600081518110610f7d57610f7c61386a565b5b60200260200101516124c2565b610fd682878780806020026020016040519081016040528093929190818152602001838360200280828437600081840152601f19601f82011690508083019250505050505050306125fb565b7f000000000000000000000000000000000000000000000000000000000000000073ffffffffffffffffffffffffffffffffffffffff16632e1a7d4d83600185516110219190613736565b815181106110325761103161386a565b5b60200260200101516040518263ffffffff1660e01b81526004016110569190612e1f565b600060405180830381600087803b15801561107057600080fd5b505af1158015611084573d6000803e3d6000fd5b505050506110b984836001855161109b9190613736565b815181106110ac576110ab61386a565b5b6020026020010151612845565b509695505050505050565b6000808411611108576040517f08c379a00000000000000000000000000000000000000000000000000000000081526004016110ff90613a5f565b60405180910390fd5b600061111484846123a8565b90506000808273ffffffffffffffffffffffffffffffffffffffff16630902f1ac6040518163ffffffff1660e01b8152600401606060405180830381865afa158015611164573d6000803e3d6000fd5b505050506040513d601f19601f8201168201806040525081019061118891906135e0565b50915091506000808673ffffffffffffffffffffffffffffffffffffffff168873ffffffffffffffffffffffffffffffffffffffff16106111ea57826dffffffffffffffffffffffffffff16846dffffffffffffffffffffffffffff1661120d565b836dffffffffffffffffffffffffffff16836dffffffffffffffffffffffffffff165b915091506000821180156112215750600081115b611260576040517f08c379a0000000000000000000000000000000000000000000000000000000008152600401611257906136a5565b60405180910390fd5b60006103e58a61127091906136f4565b90506000828261128091906136f4565b90506000826103e88661129391906136f4565b61129d91906137ca565b905080826112ab9190613799565b985050505050505050509392505050565b60608142811015611302576040517f08c379a00000000000000000000000000000000000000000000000000000000081526004016112f99061384a565b60405180910390fd5b7f000000000000000000000000000000000000000000000000000000000000000073ffffffffffffffffffffffffffffffffffffffff168686600081811061134d5761134c61386a565b5b90506020020160208101906113629190613899565b73ffffffffffffffffffffffffffffffffffffffff16146113b8576040517f08c379a00000000000000000000000000000000000000000000000000000000081526004016113af90613912565b60405180910390fd5b61140334878780806020026020016040519081016040528093929190818152602001838360200280828437600081840152601f19601f82011690508083019250505050505050611bae565b91508682600184516114159190613736565b815181106114265761142561386a565b5b6020026020010151101561146f576040517f08c379a00000000000000000000000000000000000000000000000000000000081526004016114669061353e565b60405180910390fd5b7f000000000000000000000000000000000000000000000000000000000000000073ffffffffffffffffffffffffffffffffffffffff1663d0e30db0836000815181106114bf576114be61386a565b5b60200260200101516040518263ffffffff1660e01b81526004016000604051808303818588803b1580156114f257600080fd5b505af1158015611506573d6000803e3d6000fd5b50505050507f000000000000000000000000000000000000000000000000000000000000000073ffffffffffffffffffffffffffffffffffffffff1663a9059cbb6115a18888600081811061155e5761155d61386a565b5b90506020020160208101906115739190613899565b898960018181106115875761158661386a565b5b905060200201602081019061159c9190613899565b6123a8565b846000815181106115b5576115b461386a565b5b60200260200101516040518363ffffffff1660e01b81526004016115da929190613a7f565b6020604051808303816000875af11580156115f9573d6000803e3d6000fd5b505050506040513d601f19601f8201168201806040525081019061161d9190613ae0565b5061166a82878780806020026020016040519081016040528093929190818152602001838360200280828437600081840152601f19601f82011690508083019250505050505050866125fb565b5095945050505050565b606081428110156116ba576040517f08c379a00000000000000000000000000000000000000000000000000000000081526004016116b19061384a565b60405180910390fd5b61170588878780806020026020016040519081016040528093929190818152602001838360200280828437600081840152601f19601f820116905080830192505050505050506109ab565b9150868260008151811061171c5761171b61386a565b5b60200260200101511115611765576040517f08c379a000000000000000000000000000000000000000000000000000000000815260040161175c906139cd565b60405180910390fd5b61180d8686600081811061177c5761177b61386a565b5b90506020020160208101906117919190613899565b336117ec898960008181106117a9576117a861386a565b5b90506020020160208101906117be9190613899565b8a8a60018181106117d2576117d161386a565b5b90506020020160208101906117e79190613899565b6123a8565b85600081518110611800576117ff61386a565b5b60200260200101516124c2565b61185982878780806020026020016040519081016040528093929190818152602001838360200280828437600081840152601f19601f82011690508083019250505050505050866125fb565b509695505050505050565b7f000000000000000000000000000000000000000000000000000000000000000081565b60008082428110156118cf576040517f08c379a00000000000000000000000000000000000000000000000000000000081526004016118c69061384a565b60405180910390fd5b60007f000000000000000000000000000000000000000000000000000000000000000073ffffffffffffffffffffffffffffffffffffffff1663e6a439058c8c6040518363ffffffff1660e01b815260040161192c929190613b0d565b602060405180830381865afa158015611949573d6000803e3d6000fd5b505050506040513d601f19601f8201168201806040525081019061196d9190613b4b565b9050600073ffffffffffffffffffffffffffffffffffffffff168173ffffffffffffffffffffffffffffffffffffffff16036119de576040517f08c379a00000000000000000000000000000000000000000000000000000000081526004016119d590613bc4565b60405180910390fd5b6119ea8133838c6124c2565b6000808273ffffffffffffffffffffffffffffffffffffffff166389afcb44896040518263ffffffff1660e01b8152600401611a26919061325b565b60408051808303816000875af1158015611a44573d6000803e3d6000fd5b505050506040513d601f19601f82011682018060405250810190611a689190613bf9565b9150915060008c73ffffffffffffffffffffffffffffffffffffffff168e73ffffffffffffffffffffffffffffffffffffffff1610611aa8578c8e611aab565b8d8d5b5090508073ffffffffffffffffffffffffffffffffffffffff168e73ffffffffffffffffffffffffffffffffffffffff1614611ae8578183611aeb565b82825b80975081985050508a871015611b36576040517f08c379a0000000000000000000000000000000000000000000000000000000008152600401611b2d90613cab565b60405180910390fd5b89861015611b79576040517f08c379a0000000000000000000000000000000000000000000000000000000008152600401611b7090613d3d565b60405180910390fd5b505050505097509795505050505050565b7f000000000000000000000000000000000000000000000000000000000000000081565b6060600282511015611bf5576040517f08c379a0000000000000000000000000000000000000000000000000000000008152600401611bec90613912565b60405180910390fd5b815167ffffffffffffffff811115611c1057611c0f61302a565b5b604051908082528060200260200182016040528015611c3e5781602001602082028036833780820191505090505b5090508281600081518110611c5657611c5561386a565b5b60200260200101818152505060005b60018351611c739190613736565b811015611d1d57611cdf828281518110611c9057611c8f61386a565b5b6020026020010151848381518110611cab57611caa61386a565b5b602002602001015185600185611cc191906137ca565b81518110611cd257611cd161386a565b5b60200260200101516110c4565b82600183611ced91906137ca565b81518110611cfe57611cfd61386a565b5b6020026020010181815250508080611d1590613d5d565b915050611c65565b5092915050565b60008060008342811015611d6d576040517f08c379a0000000000000000000000000000000000000000000000000000000008152600401611d649061384a565b60405180910390fd5b611d7b8c8c8c8c8c8c612945565b809450819550505060007f000000000000000000000000000000000000000000000000000000000000000073ffffffffffffffffffffffffffffffffffffffff1663e6a439058e8e6040518363ffffffff1660e01b8152600401611de0929190613b0d565b602060405180830381865afa158015611dfd573d6000803e3d6000fd5b505050506040513d601f19601f82011682018060405250810190611e219190613b4b565b9050600073ffffffffffffffffffffffffffffffffffffffff168173ffffffffffffffffffffffffffffffffffffffff1603611ef8577f000000000000000000000000000000000000000000000000000000000000000073ffffffffffffffffffffffffffffffffffffffff1663c9c653968e8e6040518363ffffffff1660e01b8152600401611eb2929190613b0d565b6020604051808303816000875af1158015611ed1573d6000803e3d6000fd5b505050506040513d601f19601f82011682018060405250810190611ef59190613b4b565b90505b611f048d3383886124c2565b611f108c3383876124c2565b8073ffffffffffffffffffffffffffffffffffffffff16636a627842886040518263ffffffff1660e01b8152600401611f49919061325b565b6020604051808303816000875af1158015611f68573d6000803e3d6000fd5b505050506040513d601f19601f82011682018060405250810190611f8c9190613da5565b92505050985098509895505050505050565b60008060008342811015611fe7576040517f08c379a0000000000000000000000000000000000000000000000000000000008152600401611fde9061384a565b60405180910390fd5b6120158a7f00000000000000000000000000000000000000000000000000000000000000008b348c8c612945565b809450819550505060007f000000000000000000000000000000000000000000000000000000000000000073ffffffffffffffffffffffffffffffffffffffff1663e6a439058c7f00000000000000000000000000000000000000000000000000000000000000006040518363ffffffff1660e01b815260040161209a929190613b0d565b602060405180830381865afa1580156120b7573d6000803e3d6000fd5b505050506040513d601f19601f820116820180604052508101906120db9190613b4b565b9050600073ffffffffffffffffffffffffffffffffffffffff168173ffffffffffffffffffffffffffffffffffffffff16036121d2577f000000000000000000000000000000000000000000000000000000000000000073ffffffffffffffffffffffffffffffffffffffff1663c9c653968c7f00000000000000000000000000000000000000000000000000000000000000006040518363ffffffff1660e01b815260040161218c929190613b0d565b6020604051808303816000875af11580156121ab573d6000803e3d6000fd5b505050506040513d601f19601f820116820180604052508101906121cf9190613b4b565b90505b6121de8b3383886124c2565b7f000000000000000000000000000000000000000000000000000000000000000073ffffffffffffffffffffffffffffffffffffffff1663d0e30db0856040518263ffffffff1660e01b81526004016000604051808303818588803b15801561224657600080fd5b505af115801561225a573d6000803e3d6000fd5b50505050507f000000000000000000000000000000000000000000000000000000000000000073ffffffffffffffffffffffffffffffffffffffff1663a9059cbb82866040518363ffffffff1660e01b81526004016122ba929190613a7f565b6020604051808303816000875af11580156122d9573d6000803e3d6000fd5b505050506040513d601f19601f820116820180604052508101906122fd9190613ae0565b508073ffffffffffffffffffffffffffffffffffffffff16636a627842886040518263ffffffff1660e01b8152600401612337919061325b565b6020604051808303816000875af1158015612356573d6000803e3d6000fd5b505050506040513d601f19601f8201168201806040525081019061237a9190613da5565b92508334111561239a576123993385346123949190613736565b612845565b5b505096509650969350505050565b6000807f000000000000000000000000000000000000000000000000000000000000000073ffffffffffffffffffffffffffffffffffffffff1663e6a4390585856040518363ffffffff1660e01b8152600401612406929190613b0d565b602060405180830381865afa158015612423573d6000803e3d6000fd5b505050506040513d601f19601f820116820180604052508101906124479190613b4b565b9050600073ffffffffffffffffffffffffffffffffffffffff168173ffffffffffffffffffffffffffffffffffffffff16036124b8576040517f08c379a00000000000000000000000000000000000000000000000000000000081526004016124af90613bc4565b60405180910390fd5b8091505092915050565b6000808573ffffffffffffffffffffffffffffffffffffffff166323b872dd8686866040516024016124f693929190613dd2565b6040516020818303038152906040529060e01b6020820180517bffffffffffffffffffffffffffffffffffffffffffffffffffffffff83818316178352505050506040516125449190613e7a565b6000604051808303816000865af19150503d8060008114612581576040519150601f19603f3d011682016040523d82523d6000602084013e612586565b606091505b50915091508180156125b457506000815114806125b35750808060200190518101906125b29190613ae0565b5b5b6125f3576040517f08c379a00000000000000000000000000000000000000000000000000000000081526004016125ea90613f03565b60405180910390fd5b505050505050565b60005b6001835161260c9190613736565b81101561283f576000808483815181106126295761262861386a565b5b60200260200101518560018561263f91906137ca565b815181106126505761264f61386a565b5b60200260200101519150915060008173ffffffffffffffffffffffffffffffffffffffff168373ffffffffffffffffffffffffffffffffffffffff161061269857818361269b565b82825b5090506000876001866126ae91906137ca565b815181106126bf576126be61386a565b5b602002602001015190506000808373ffffffffffffffffffffffffffffffffffffffff168673ffffffffffffffffffffffffffffffffffffffff16146127075782600061270b565b6000835b91509150600060028a5161271f9190613736565b881061272b578861275c565b61275b868b60028b61273d91906137ca565b8151811061274e5761274d61386a565b5b60200260200101516123a8565b5b905061276887876123a8565b73ffffffffffffffffffffffffffffffffffffffff1663022c0d9f848484600067ffffffffffffffff8111156127a1576127a061302a565b5b6040519080825280601f01601f1916602001820160405280156127d35781602001600182028036833780820191505090505b506040518563ffffffff1660e01b81526004016127f39493929190613f6d565b600060405180830381600087803b15801561280d57600080fd5b505af1158015612821573d6000803e3d6000fd5b5050505050505050505050808061283790613d5d565b9150506125fe565b50505050565b60008273ffffffffffffffffffffffffffffffffffffffff1682600067ffffffffffffffff81111561287a5761287961302a565b5b6040519080825280601f01601f1916602001820160405280156128ac5781602001600182028036833780820191505090505b506040516128ba9190613e7a565b60006040518083038185875af1925050503d80600081146128f7576040519150601f19603f3d011682016040523d82523d6000602084013e6128fc565b606091505b5050905080612940576040517f08c379a00000000000000000000000000000000000000000000000000000000081526004016129379061402b565b60405180910390fd5b505050565b60008060007f000000000000000000000000000000000000000000000000000000000000000073ffffffffffffffffffffffffffffffffffffffff1663e6a439058a8a6040518363ffffffff1660e01b81526004016129a5929190613b0d565b602060405180830381865afa1580156129c2573d6000803e3d6000fd5b505050506040513d601f19601f820116820180604052508101906129e69190613b4b565b9050600073ffffffffffffffffffffffffffffffffffffffff168173ffffffffffffffffffffffffffffffffffffffff1603612a2757869250859150612c56565b6000808273ffffffffffffffffffffffffffffffffffffffff16630902f1ac6040518163ffffffff1660e01b8152600401606060405180830381865afa158015612a75573d6000803e3d6000fd5b505050506040513d601f19601f82011682018060405250810190612a9991906135e0565b50915091506000808b73ffffffffffffffffffffffffffffffffffffffff168d73ffffffffffffffffffffffffffffffffffffffff1610612afb57826dffffffffffffffffffffffffffff16846dffffffffffffffffffffffffffff16612b1e565b836dffffffffffffffffffffffffffff16836dffffffffffffffffffffffffffff165b91509150600082148015612b325750600081145b15612b46578a8a8097508198505050612c51565b6000612b538c8484612c62565b90508a8111612bae5788811015612b9f576040517f08c379a0000000000000000000000000000000000000000000000000000000008152600401612b9690613d3d565b60405180910390fd5b8b818098508199505050612c4f565b6000612bbb8c8486612c62565b90508c811115612c00576040517f08c379a0000000000000000000000000000000000000000000000000000000008152600401612bf7906140bd565b60405180910390fd5b8a811015612c43576040517f08c379a0000000000000000000000000000000000000000000000000000000008152600401612c3a90613cab565b60405180910390fd5b808c809950819a505050505b505b505050505b50965096945050505050565b6000808411612ca6576040517f08c379a0000000000000000000000000000000000000000000000000000000008152600401612c9d9061414f565b60405180910390fd5b600083118015612cb65750600082115b612cf5576040517f08c379a0000000000000000000000000000000000000000000000000000000008152600401612cec906136a5565b60405180910390fd5b828285612d0291906136f4565b612d0c9190613799565b90509392505050565b6000604051905090565b600080fd5b600080fd5b6000819050919050565b612d3c81612d29565b8114612d4757600080fd5b50565b600081359050612d5981612d33565b92915050565b600073ffffffffffffffffffffffffffffffffffffffff82169050919050565b6000612d8a82612d5f565b9050919050565b612d9a81612d7f565b8114612da557600080fd5b50565b600081359050612db781612d91565b92915050565b600080600060608486031215612dd657612dd5612d1f565b5b6000612de486828701612d4a565b9350506020612df586828701612da8565b9250506040612e0686828701612da8565b9150509250925092565b612e1981612d29565b82525050565b6000602082019050612e346000830184612e10565b92915050565b600080fd5b600080fd5b600080fd5b60008083601f840112612e5f57612e5e612e3a565b5b8235905067ffffffffffffffff811115612e7c57612e7b612e3f565b5b602083019150836020820283011115612e9857612e97612e44565b5b9250929050565b60008060008060008060a08789031215612ebc57612ebb612d1f565b5b6000612eca89828a01612d4a565b9650506020612edb89828a01612d4a565b955050604087013567ffffffffffffffff811115612efc57612efb612d24565b5b612f0889828a01612e49565b94509450506060612f1b89828a01612da8565b9250506080612f2c89828a01612d4a565b9150509295509295509295565b600081519050919050565b600082825260208201905092915050565b6000819050602082019050919050565b612f6e81612d29565b82525050565b6000612f808383612f65565b60208301905092915050565b6000602082019050919050565b6000612fa482612f39565b612fae8185612f44565b9350612fb983612f55565b8060005b83811015612fea578151612fd18882612f74565b9750612fdc83612f8c565b925050600181019050612fbd565b5085935050505092915050565b600060208201905081810360008301526130118184612f99565b905092915050565b6000601f19601f8301169050919050565b7f4e487b7100000000000000000000000000000000000000000000000000000000600052604160045260246000fd5b61306282613019565b810181811067ffffffffffffffff821117156130815761308061302a565b5b80604052505050565b6000613094612d15565b90506130a08282613059565b919050565b600067ffffffffffffffff8211156130c0576130bf61302a565b5b602082029050602081019050919050565b60006130e46130df846130a5565b61308a565b9050808382526020820190506020840283018581111561310757613106612e44565b5b835b81811015613130578061311c8882612da8565b845260208401935050602081019050613109565b5050509392505050565b600082601f83011261314f5761314e612e3a565b5b813561315f8482602086016130d1565b91505092915050565b6000806040838503121561317f5761317e612d1f565b5b600061318d85828601612d4a565b925050602083013567ffffffffffffffff8111156131ae576131ad612d24565b5b6131ba8582860161313a565b9150509250929050565b6000806000806000608086880312156131e0576131df612d1f565b5b60006131ee88828901612d4a565b955050602086013567ffffffffffffffff81111561320f5761320e612d24565b5b61321b88828901612e49565b9450945050604061322e88828901612da8565b925050606061323f88828901612d4a565b9150509295509295909350565b61325581612d7f565b82525050565b6000602082019050613270600083018461324c565b92915050565b600080600080600080600060e0888a03121561329557613294612d1f565b5b60006132a38a828b01612da8565b97505060206132b48a828b01612da8565b96505060406132c58a828b01612d4a565b95505060606132d68a828b01612d4a565b94505060806132e78a828b01612d4a565b93505060a06132f88a828b01612da8565b92505060c06133098a828b01612d4a565b91505092959891949750929550565b600060408201905061332d6000830185612e10565b61333a6020830184612e10565b9392505050565b600080600080600080600080610100898b03121561336257613361612d1f565b5b60006133708b828c01612da8565b98505060206133818b828c01612da8565b97505060406133928b828c01612d4a565b96505060606133a38b828c01612d4a565b95505060806133b48b828c01612d4a565b94505060a06133c58b828c01612d4a565b93505060c06133d68b828c01612da8565b92505060e06133e78b828c01612d4a565b9150509295985092959890939650565b600060608201905061340c6000830186612e10565b6134196020830185612e10565b6134266040830184612e10565b949350505050565b60008060008060008060c0878903121561344b5761344a612d1f565b5b600061345989828a01612da8565b965050602061346a89828a01612d4a565b955050604061347b89828a01612d4a565b945050606061348c89828a01612d4a565b935050608061349d89828a01612da8565b92505060a06134ae89828a01612d4a565b9150509295509295509295565b600082825260208201905092915050565b7f556e69737761705632526f757465723a20494e53554646494349454e545f4f5560008201527f545055545f414d4f554e54000000000000000000000000000000000000000000602082015250565b6000613528602b836134bb565b9150613533826134cc565b604082019050919050565b600060208201905081810360008301526135578161351b565b9050919050565b60006dffffffffffffffffffffffffffff82169050919050565b6135818161355e565b811461358c57600080fd5b50565b60008151905061359e81613578565b92915050565b600063ffffffff82169050919050565b6135bd816135a4565b81146135c857600080fd5b50565b6000815190506135da816135b4565b92915050565b6000806000606084860312156135f9576135f8612d1f565b5b60006136078682870161358f565b93505060206136188682870161358f565b9250506040613629868287016135cb565b9150509250925092565b7f556e69737761705632526f757465723a20494e53554646494349454e545f4c4960008201527f5155494449545900000000000000000000000000000000000000000000000000602082015250565b600061368f6027836134bb565b915061369a82613633565b604082019050919050565b600060208201905081810360008301526136be81613682565b9050919050565b7f4e487b7100000000000000000000000000000000000000000000000000000000600052601160045260246000fd5b60006136ff82612d29565b915061370a83612d29565b925082820261371881612d29565b9150828204841483151761372f5761372e6136c5565b5b5092915050565b600061374182612d29565b915061374c83612d29565b9250828203905081811115613764576137636136c5565b5b92915050565b7f4e487b7100000000000000000000000000000000000000000000000000000000600052601260045260246000fd5b60006137a482612d29565b91506137af83612d29565b9250826137bf576137be61376a565b5b828204905092915050565b60006137d582612d29565b91506137e083612d29565b92508282019050808211156137f8576137f76136c5565b5b92915050565b7f556e69737761705632526f757465723a20455850495245440000000000000000600082015250565b60006138346018836134bb565b915061383f826137fe565b602082019050919050565b6000602082019050818103600083015261386381613827565b9050919050565b7f4e487b7100000000000000000000000000000000000000000000000000000000600052603260045260246000fd5b6000602082840312156138af576138ae612d1f565b5b60006138bd84828501612da8565b91505092915050565b7f556e69737761705632526f757465723a20494e56414c49445f50415448000000600082015250565b60006138fc601d836134bb565b9150613907826138c6565b602082019050919050565b6000602082019050818103600083015261392b816138ef565b9050919050565b600061393d82612d29565b9150600082036139505761394f6136c5565b5b600182039050919050565b7f556e69737761705632526f757465723a204558434553534956455f494e50555460008201527f5f414d4f554e5400000000000000000000000000000000000000000000000000602082015250565b60006139b76027836134bb565b91506139c28261395b565b604082019050919050565b600060208201905081810360008301526139e6816139aa565b9050919050565b7f556e69737761705632526f757465723a20494e53554646494349454e545f494e60008201527f5055545f414d4f554e5400000000000000000000000000000000000000000000602082015250565b6000613a49602a836134bb565b9150613a54826139ed565b604082019050919050565b60006020820190508181036000830152613a7881613a3c565b9050919050565b6000604082019050613a94600083018561324c565b613aa16020830184612e10565b9392505050565b60008115159050919050565b613abd81613aa8565b8114613ac857600080fd5b50565b600081519050613ada81613ab4565b92915050565b600060208284031215613af657613af5612d1f565b5b6000613b0484828501613acb565b91505092915050565b6000604082019050613b22600083018561324c565b613b2f602083018461324c565b9392505050565b600081519050613b4581612d91565b92915050565b600060208284031215613b6157613b60612d1f565b5b6000613b6f84828501613b36565b91505092915050565b7f556e69737761705632526f757465723a20504149525f4e4f545f464f554e4400600082015250565b6000613bae601f836134bb565b9150613bb982613b78565b602082019050919050565b60006020820190508181036000830152613bdd81613ba1565b9050919050565b600081519050613bf381612d33565b92915050565b60008060408385031215613c1057613c0f612d1f565b5b6000613c1e85828601613be4565b9250506020613c2f85828601613be4565b9150509250929050565b7f556e69737761705632526f757465723a20494e53554646494349454e545f415f60008201527f414d4f554e540000000000000000000000000000000000000000000000000000602082015250565b6000613c956026836134bb565b9150613ca082613c39565b604082019050919050565b60006020820190508181036000830152613cc481613c88565b9050919050565b7f556e69737761705632526f757465723a20494e53554646494349454e545f425f60008201527f414d4f554e540000000000000000000000000000000000000000000000000000602082015250565b6000613d276026836134bb565b9150613d3282613ccb565b604082019050919050565b60006020820190508181036000830152613d5681613d1a565b9050919050565b6000613d6882612d29565b91507fffffffffffffffffffffffffffffffffffffffffffffffffffffffffffffffff8203613d9a57613d996136c5565b5b600182019050919050565b600060208284031215613dbb57613dba612d1f565b5b6000613dc984828501613be4565b91505092915050565b6000606082019050613de7600083018661324c565b613df4602083018561324c565b613e016040830184612e10565b949350505050565b600081519050919050565b600081905092915050565b60005b83811015613e3d578082015181840152602081019050613e22565b60008484015250505050565b6000613e5482613e09565b613e5e8185613e14565b9350613e6e818560208601613e1f565b80840191505092915050565b6000613e868284613e49565b915081905092915050565b7f556e69737761705632526f757465723a205452414e534645525f46524f4d5f4660008201527f41494c4544000000000000000000000000000000000000000000000000000000602082015250565b6000613eed6025836134bb565b9150613ef882613e91565b604082019050919050565b60006020820190508181036000830152613f1c81613ee0565b9050919050565b600082825260208201905092915050565b6000613f3f82613e09565b613f498185613f23565b9350613f59818560208601613e1f565b613f6281613019565b840191505092915050565b6000608082019050613f826000830187612e10565b613f8f6020830186612e10565b613f9c604083018561324c565b8181036060830152613fae8184613f34565b905095945050505050565b7f556e69737761705632526f757465723a204554485f5452414e534645525f464160008201527f494c454400000000000000000000000000000000000000000000000000000000602082015250565b60006140156024836134bb565b915061402082613fb9565b604082019050919050565b6000602082019050818103600083015261404481614008565b9050919050565b7f556e69737761705632526f757465723a204558434553534956455f415f414d4f60008201527f554e540000000000000000000000000000000000000000000000000000000000602082015250565b60006140a76023836134bb565b91506140b28261404b565b604082019050919050565b600060208201905081810360008301526140d68161409a565b9050919050565b7f556e69737761705632526f757465723a20494e53554646494349454e545f414d60008201527f4f554e5400000000000000000000000000000000000000000000000000000000602082015250565b60006141396024836134bb565b9150614144826140dd565b604082019050919050565b600060208201905081810360008301526141688161412c565b905091905056fea2646970667358221220d4496867d5c2a6849fbcfbf5876901fd35de97e2fa3acb7959226d87ab6e756764736f6c63430008140033",
  "linkReferences": {},
  "deployedLinkReferences": {}
}