{
  "_format": "hh-sol-artifact-1",
  "contractName": "MockERC20",
  "sourceName": "contracts/MockERC20.sol",
  "abi": [
    {
      "inputs": [
        {
          "internalType": "string",
          "name": "name_",
          "type": "string"
        },
        {
          "internalType": "string",
          "name": "symbol_",
          "type": "string"
        },
        {
          "internalType": "uint256",
          "name": "initialSupply",
          "type": "uint256"
        }
      ],
      "stateMutability": "nonpayable",
      "type": "constructor"
    },
    {
      "anonymous": false,
      "inputs": [
        {
          "indexed": true,
          "internalType": "address",
          "name": "owner",
          "type": "address"
        },
        {
          "indexed": true,
          "internalType": "address",
          "name": "spender",
          "type": "address"
        },
        {
          "indexed": false,
          "internalType": "uint256",
          "name": "value",
          "type": "uint256"
        }
      ],
      "name": "Approval",
      "type": "event"
    },
    {
      "anonymous": false,
      "inputs": [
        {
          "indexed": true,
          "internalType": "address",
          "name": "from",
          "type": "address"
        },
        {
          "indexed": true,
          "internalType": "address",
          "name": "to",
          "type": "address"
        },
        {
          "indexed": false,
          "internalType": "uint256",
          "name": "value",
          "type": "uint256"
        }
      ],
      "name": "Transfer",
      "type": "event"
    },
    {
      "inputs": [
        {
          "internalType": "address",
          "name": "owner",
          "type": "address"
        },
        {
          "internalType": "address",
          "name": "spender",
          "type": "address"
        }
      ],
      "name": "allowance",
      "outputs": [
        {
          "internalType": "uint256",
          "name": "",
          "type": "uint256"
        }
      ],
      "stateMutability": "view",
      "type": "function"
    },
    {
      "inputs": [
        {
          "internalType": "address",
          "name": "spender",
          "type": "address"
        },
        {
          "internalType": "uint256",
          "name": "amount",
          "type": "uint256"
        }
      ],
      "name": "approve",
      "outputs": [
        {
          "internalType": "bool",
          "name": "",
          "type": "bool"
        }
      ],
      "stateMutability": "nonpayable",
      "type": "function"
    },
    {
      "inputs": [
        {
          "internalType": "address",
          "name": "account",
          "type": "address"
        }
      ],
      "name": "balanceOf",
      "outputs": [
        {
          "internalType": "uint256",
          "name": "",
          "type": "uint256"
        }
      ],
      "stateMutability": "view",
      "type": "function"
    },
    {
      "inputs": [
        {
          "internalType": "uint256",
          "name": "amount",
          "type": "uint256"
        }
      ],
      "name": "burn",
      "outputs": [],
      "stateMutability": "nonpayable",
      "type": "function"
    },
    {
      "inputs": [],
      "name": "decimals",
      "outputs": [
        {
          "internalType": "uint8",
          "name": "",
          "type": "uint8"
        }
      ],
      "stateMutability": "view",
      "type": "function"
    },
    {
      "inputs": [
        {
          "internalType": "address",
          "name": "spender",
          "type": "address"
        },
        {
          "internalType": "uint256",
          "name": "subtractedValue",
          "type": "uint256"
        }
      ],
      "name": "decreaseAllowance",
      "outputs": [
        {
          "internalType": "bool",
          "name": "",
          "type": "bool"
        }
      ],
      "stateMutability": "nonpayable",
      "type": "function"
    },
    {
      "inputs": [
        {
          "internalType": "address",
          "name": "spender",
          "type": "address"
        },
        {
          "internalType": "uint256",
          "name": "addedValue",
          "type": "uint256"
        }
      ],
      "name": "increaseAllowance",
      "outputs": [
        {
          "internalType": "bool",
          "name": "",
          "type": "bool"
        }
      ],
      "stateMutability": "nonpayable",
      "type": "function"
    },
    {
      "inputs": [
        {
          "internalType": "address",
          "name": "to",
          "type": "address"
        },
        {
          "internalType": "uint256",
          "name": "amount",
          "type": "uint256"
        }
      ],
      "name": "mint",
      "outputs": [],
      "stateMutability": "nonpayable",
      "type": "function"
    },
    {
      "inputs": [],
      "name": "name",
      "outputs": [
        {
          "internalType": "string",
          "name": "",
          "type": "string"
        }
      ],
      "stateMutability": "view",
      "type": "function"
    },
    {
      "inputs": [],
      "name": "owner",
      "outputs": [
        {
          "internalType": "address",
          "name": "",
          "type": "address"
        }
      ],
      "stateMutability": "view",
      "type": "function"
    },
    {
      "inputs": [],
      "name": "symbol",
      "outputs": [
        {
          "internalType": "string",
          "name": "",
          "type": "string"
        }
      ],
      "stateMutability": "view",
      "type": "function"
    },
    {
      "inputs": [],
      "name": "totalSupply",
      "outputs": [
        {
          "internalType": "uint256",
          "name": "",
          "type": "uint256"
        }
      ],
      "stateMutability": "view",
      "type": "function"
    },
    {
      "inputs": [
        {
          "internalType": "address",
          "name": "to",
          "type": "address"
        },
        {
          "internalType": "uint256",
          "name": "amount",
          "type": "uint256"
        }
      ],
      "name": "transfer",
      "outputs": [
        {
          "internalType": "bool",
          "name": "",
          "type": "bool"
        }
      ],
      "stateMutability": "nonpayable",
      "type": "function"
    },
    {
      "inputs": [
        {
          "internalType": "address",
          "name": "from",
          "type": "address"
        },
        {
          "internalType": "address",
          "name": "to",
          "type": "address"
        },
        {
          "internalType": "uint256",
          "name": "amount",
          "type": "uint256"
        }
      ],
      "name": "transferFrom",
      "outputs": [
        {
          "internalType": "bool",
          "name": "",
          "type": "bool"
        }
      ],
      "stateMutability": "nonpayable",
      "type": "function"
    }
  ],
  "bytecode": "0x60806040523480156200001157600080fd5b506040516200222038038062002220833981810160405281019062000037919062000400565b828281600390816200004a9190620006db565b5080600490816200005c9190620006db565b50505033600560006101000a81548173ffffffffffffffffffffffffffffffffffffffff021916908373ffffffffffffffffffffffffffffffffffffffff160217905550620000b23382620000bb60201b60201c565b505050620008dd565b600073ffffffffffffffffffffffffffffffffffffffff168273ffffffffffffffffffffffffffffffffffffffff16036200012d576040517f08c379a0000000000000000000000000000000000000000000000000000000008152600401620001249062000823565b60405180910390fd5b62000141600083836200022860201b60201c565b806002600082825462000155919062000874565b92505081905550806000808473ffffffffffffffffffffffffffffffffffffffff1673ffffffffffffffffffffffffffffffffffffffff168152602001908152602001600020600082825401925050819055508173ffffffffffffffffffffffffffffffffffffffff16600073ffffffffffffffffffffffffffffffffffffffff167fddf252ad1be2c89b69c2b068fc378daa952ba7f163c4a11628f55a4df523b3ef83604051620002089190620008c0565b60405180910390a362000224600083836200022d60201b60201c565b5050565b505050565b505050565b6000604051905090565b600080fd5b600080fd5b600080fd5b600080fd5b6000601f19601f8301169050919050565b7f4e487b7100000000000000000000000000000000000000000000000000000000600052604160045260246000fd5b6200029b8262000250565b810181811067ffffffffffffffff82111715620002bd57620002bc62000261565b5b80604052505050565b6000620002d262000232565b9050620002e0828262000290565b919050565b600067ffffffffffffffff82111562000303576200030262000261565b5b6200030e8262000250565b9050602081019050919050565b60005b838110156200033b5780820151818401526020810190506200031e565b60008484015250505050565b60006200035e6200035884620002e5565b620002c6565b9050828152602081018484840111156200037d576200037c6200024b565b5b6200038a8482856200031b565b509392505050565b600082601f830112620003aa57620003a962000246565b5b8151620003bc84826020860162000347565b91505092915050565b6000819050919050565b620003da81620003c5565b8114620003e657600080fd5b50565b600081519050620003fa81620003cf565b92915050565b6000806000606084860312156200041c576200041b6200023c565b5b600084015167ffffffffffffffff8111156200043d576200043c62000241565b5b6200044b8682870162000392565b935050602084015167ffffffffffffffff8111156200046f576200046e62000241565b5b6200047d8682870162000392565b92505060406200049086828701620003e9565b9150509250925092565b600081519050919050565b7f4e487b7100000000000000000000000000000000000000000000000000000000600052602260045260246000fd5b60006002820490506001821680620004ed57607f821691505b602082108103620005035762000502620004a5565b5b50919050565b60008190508160005260206000209050919050565b60006020601f8301049050919050565b600082821b905092915050565b6000600883026200056d7fffffffffffffffffffffffffffffffffffffffffffffffffffffffffffffffff826200052e565b6200057986836200052e565b95508019841693508086168417925050509392505050565b6000819050919050565b6000620005bc620005b6620005b084620003c5565b62000591565b620003c5565b9050919050565b6000819050919050565b620005d8836200059b565b620005f0620005e782620005c3565b8484546200053b565b825550505050565b600090565b62000607620005f8565b62000614818484620005cd565b505050565b5b818110156200063c5762000630600082620005fd565b6001810190506200061a565b5050565b601f8211156200068b57620006558162000509565b62000660846200051e565b8101602085101562000670578190505b620006886200067f856200051e565b83018262000619565b50505b505050565b600082821c905092915050565b6000620006b06000198460080262000690565b1980831691505092915050565b6000620006cb83836200069d565b9150826002028217905092915050565b620006e6826200049a565b67ffffffffffffffff81111562000702576200070162000261565b5b6200070e8254620004d4565b6200071b82828562000640565b600060209050601f8311600181146200075357600084156200073e578287015190505b6200074a8582620006bd565b865550620007ba565b601f198416620007638662000509565b60005b828110156200078d5784890151825560018201915060208501945060208101905062000766565b86831015620007ad5784890151620007a9601f8916826200069d565b8355505b6001600288020188555050505b505050505050565b600082825260208201905092915050565b7f45524332303a206d696e7420746f20746865207a65726f206164647265737300600082015250565b60006200080b601f83620007c2565b91506200081882620007d3565b602082019050919050565b600060208201905081810360008301526200083e81620007fc565b9050919050565b7f4e487b7100000000000000000000000000000000000000000000000000000000600052601160045260246000fd5b60006200088182620003c5565b91506200088e83620003c5565b9250828201905080821115620008a957620008a862000845565b5b92915050565b620008ba81620003c5565b82525050565b6000602082019050620008d76000830184620008af565b92915050565b61193380620008ed6000396000f3fe608060405234801561001057600080fd5b50600436106100ea5760003560e01c806342966c681161008c57806395d89b411161006657806395d89b411461025f578063a457c2d71461027d578063a9059cbb146102ad578063dd62ed3e146102dd576100ea565b806342966c68146101f557806370a08231146102115780638da5cb5b14610241576100ea565b806323b872dd116100c857806323b872dd1461015b578063313ce5671461018b57806339509351146101a957806340c10f19146101d9576100ea565b806306fdde03146100ef578063095ea7b31461010d57806318160ddd1461013d575b600080fd5b6100f761030d565b6040516101049190610f97565b60405180910390f35b61012760048036038101906101229190611052565b61039f565b60405161013491906110ad565b60405180910390f35b6101456103c2565b60405161015291906110d7565b60405180910390f35b610175600480360381019061017091906110f2565b6103cc565b60405161018291906110ad565b60405180910390f35b6101936103fb565b6040516101a09190611161565b60405180910390f35b6101c360048036038101906101be9190611052565b610404565b6040516101d091906110ad565b60405180910390f35b6101f360048036038101906101ee9190611052565b61043b565b005b61020f600480360381019061020a919061117c565b6104d9565b005b61022b600480360381019061022691906111a9565b6104e6565b60405161023891906110d7565b60405180910390f35b61024961052e565b60405161025691906111e5565b60405180910390f35b610267610554565b6040516102749190610f97565b60405180910390f35b61029760048036038101906102929190611052565b6105e6565b6040516102a491906110ad565b60405180910390f35b6102c760048036038101906102c29190611052565b61065d565b6040516102d491906110ad565b60405180910390f35b6102f760048036038101906102f29190611200565b610680565b60405161030491906110d7565b60405180910390f35b60606003805461031c9061126f565b80601f01602080910402602001604051908101604052809291908181526020018280546103489061126f565b80156103955780601f1061036a57610100808354040283529160200191610395565b820191906000526020600020905b81548152906001019060200180831161037857829003601f168201915b5050505050905090565b6000806103aa610707565b90506103b781858561070f565b600191505092915050565b6000600254905090565b6000806103d7610707565b90506103e48582856108d8565b6103ef858585610964565b60019150509392505050565b60006012905090565b60008061040f610707565b90506104308185856104218589610680565b61042b91906112cf565b61070f565b600191505092915050565b600560009054906101000a900473ffffffffffffffffffffffffffffffffffffffff1673ffffffffffffffffffffffffffffffffffffffff163373ffffffffffffffffffffffffffffffffffffffff16146104cb576040517f08c379a00000000000000000000000000000000000000000000000000000000081526004016104c290611375565b60405180910390fd5b6104d58282610bda565b5050565b6104e33382610d30565b50565b60008060008373ffffffffffffffffffffffffffffffffffffffff1673ffffffffffffffffffffffffffffffffffffffff168152602001908152602001600020549050919050565b600560009054906101000a900473ffffffffffffffffffffffffffffffffffffffff1681565b6060600480546105639061126f565b80601f016020809104026020016040519081016040528092919081815260200182805461058f9061126f565b80156105dc5780601f106105b1576101008083540402835291602001916105dc565b820191906000526020600020905b8154815290600101906020018083116105bf57829003601f168201915b5050505050905090565b6000806105f1610707565b905060006105ff8286610680565b905083811015610644576040517f08c379a000000000000000000000000000000000000000000000000000000000815260040161063b90611407565b60405180910390fd5b610651828686840361070f565b60019250505092915050565b600080610668610707565b9050610675818585610964565b600191505092915050565b6000600160008473ffffffffffffffffffffffffffffffffffffffff1673ffffffffffffffffffffffffffffffffffffffff16815260200190815260200160002060008373ffffffffffffffffffffffffffffffffffffffff1673ffffffffffffffffffffffffffffffffffffffff16815260200190815260200160002054905092915050565b600033905090565b600073ffffffffffffffffffffffffffffffffffffffff168373ffffffffffffffffffffffffffffffffffffffff160361077e576040517f08c379a000000000000000000000000000000000000000000000000000000000815260040161077590611499565b60405180910390fd5b600073ffffffffffffffffffffffffffffffffffffffff168273ffffffffffffffffffffffffffffffffffffffff16036107ed576040517f08c379a00000000000000000000000000000000000000000000000000000000081526004016107e49061152b565b60405180910390fd5b80600160008573ffffffffffffffffffffffffffffffffffffffff1673ffffffffffffffffffffffffffffffffffffffff16815260200190815260200160002060008473ffffffffffffffffffffffffffffffffffffffff1673ffffffffffffffffffffffffffffffffffffffff168152602001908152602001600020819055508173ffffffffffffffffffffffffffffffffffffffff168373ffffffffffffffffffffffffffffffffffffffff167f8c5be1e5ebec7d5bd14f71427d1e84f3dd0314c0f7b2291e5b200ac8c7c3b925836040516108cb91906110d7565b60405180910390a3505050565b60006108e48484610680565b90507fffffffffffffffffffffffffffffffffffffffffffffffffffffffffffffffff811461095e5781811015610950576040517f08c379a000000000000000000000000000000000000000000000000000000000815260040161094790611597565b60405180910390fd5b61095d848484840361070f565b5b50505050565b600073ffffffffffffffffffffffffffffffffffffffff168373ffffffffffffffffffffffffffffffffffffffff16036109d3576040517f08c379a00000000000000000000000000000000000000000000000000000000081526004016109ca90611629565b60405180910390fd5b600073ffffffffffffffffffffffffffffffffffffffff168273ffffffffffffffffffffffffffffffffffffffff1603610a42576040517f08c379a0000000000000000000000000000000000000000000000000000000008152600401610a39906116bb565b60405180910390fd5b610a4d838383610efd565b60008060008573ffffffffffffffffffffffffffffffffffffffff1673ffffffffffffffffffffffffffffffffffffffff16815260200190815260200160002054905081811015610ad3576040517f08c379a0000000000000000000000000000000000000000000000000000000008152600401610aca9061174d565b60405180910390fd5b8181036000808673ffffffffffffffffffffffffffffffffffffffff1673ffffffffffffffffffffffffffffffffffffffff16815260200190815260200160002081905550816000808573ffffffffffffffffffffffffffffffffffffffff1673ffffffffffffffffffffffffffffffffffffffff168152602001908152602001600020600082825401925050819055508273ffffffffffffffffffffffffffffffffffffffff168473ffffffffffffffffffffffffffffffffffffffff167fddf252ad1be2c89b69c2b068fc378daa952ba7f163c4a11628f55a4df523b3ef84604051610bc191906110d7565b60405180910390a3610bd4848484610f02565b50505050565b600073ffffffffffffffffffffffffffffffffffffffff168273ffffffffffffffffffffffffffffffffffffffff1603610c49576040517f08c379a0000000000000000000000000000000000000000000000000000000008152600401610c40906117b9565b60405180910390fd5b610c5560008383610efd565b8060026000828254610c6791906112cf565b92505081905550806000808473ffffffffffffffffffffffffffffffffffffffff1673ffffffffffffffffffffffffffffffffffffffff168152602001908152602001600020600082825401925050819055508173ffffffffffffffffffffffffffffffffffffffff16600073ffffffffffffffffffffffffffffffffffffffff167fddf252ad1be2c89b69c2b068fc378daa952ba7f163c4a11628f55a4df523b3ef83604051610d1891906110d7565b60405180910390a3610d2c60008383610f02565b5050565b600073ffffffffffffffffffffffffffffffffffffffff168273ffffffffffffffffffffffffffffffffffffffff1603610d9f576040517f08c379a0000000000000000000000000000000000000000000000000000000008152600401610d969061184b565b60405180910390fd5b610dab82600083610efd565b60008060008473ffffffffffffffffffffffffffffffffffffffff1673ffffffffffffffffffffffffffffffffffffffff16815260200190815260200160002054905081811015610e31576040517f08c379a0000000000000000000000000000000000000000000000000000000008152600401610e28906118dd565b60405180910390fd5b8181036000808573ffffffffffffffffffffffffffffffffffffffff1673ffffffffffffffffffffffffffffffffffffffff1681526020019081526020016000208190555081600260008282540392505081905550600073ffffffffffffffffffffffffffffffffffffffff168373ffffffffffffffffffffffffffffffffffffffff167fddf252ad1be2c89b69c2b068fc378daa952ba7f163c4a11628f55a4df523b3ef84604051610ee491906110d7565b60405180910390a3610ef883600084610f02565b505050565b505050565b505050565b600081519050919050565b600082825260208201905092915050565b60005b83811015610f41578082015181840152602081019050610f26565b60008484015250505050565b6000601f19601f8301169050919050565b6000610f6982610f07565b610f738185610f12565b9350610f83818560208601610f23565b610f8c81610f4d565b840191505092915050565b60006020820190508181036000830152610fb18184610f5e565b905092915050565b600080fd5b600073ffffffffffffffffffffffffffffffffffffffff82169050919050565b6000610fe982610fbe565b9050919050565b610ff981610fde565b811461100457600080fd5b50565b60008135905061101681610ff0565b92915050565b6000819050919050565b61102f8161101c565b811461103a57600080fd5b50565b60008135905061104c81611026565b92915050565b6000806040838503121561106957611068610fb9565b5b600061107785828601611007565b92505060206110888582860161103d565b9150509250929050565b60008115159050919050565b6110a781611092565b82525050565b60006020820190506110c2600083018461109e565b92915050565b6110d18161101c565b82525050565b60006020820190506110ec60008301846110c8565b92915050565b60008060006060848603121561110b5761110a610fb9565b5b600061111986828701611007565b935050602061112a86828701611007565b925050604061113b8682870161103d565b9150509250925092565b600060ff82169050919050565b61115b81611145565b82525050565b60006020820190506111766000830184611152565b92915050565b60006020828403121561119257611191610fb9565b5b60006111a08482850161103d565b91505092915050565b6000602082840312156111bf576111be610fb9565b5b60006111cd84828501611007565b91505092915050565b6111df81610fde565b82525050565b60006020820190506111fa60008301846111d6565b92915050565b6000806040838503121561121757611216610fb9565b5b600061122585828601611007565b925050602061123685828601611007565b9150509250929050565b7f4e487b7100000000000000000000000000000000000000000000000000000000600052602260045260246000fd5b6000600282049050600182168061128757607f821691505b60208210810361129a57611299611240565b5b50919050565b7f4e487b7100000000000000000000000000000000000000000000000000000000600052601160045260246000fd5b60006112da8261101c565b91506112e58361101c565b92508282019050808211156112fd576112fc6112a0565b5b92915050565b7f4f6e6c79206f776e65722063616e2063616c6c20746869732066756e6374696f60008201527f6e00000000000000000000000000000000000000000000000000000000000000602082015250565b600061135f602183610f12565b915061136a82611303565b604082019050919050565b6000602082019050818103600083015261138e81611352565b9050919050565b7f45524332303a2064656372656173656420616c6c6f77616e63652062656c6f7760008201527f207a65726f000000000000000000000000000000000000000000000000000000602082015250565b60006113f1602583610f12565b91506113fc82611395565b604082019050919050565b60006020820190508181036000830152611420816113e4565b9050919050565b7f45524332303a20617070726f76652066726f6d20746865207a65726f2061646460008201527f7265737300000000000000000000000000000000000000000000000000000000602082015250565b6000611483602483610f12565b915061148e82611427565b604082019050919050565b600060208201905081810360008301526114b281611476565b9050919050565b7f45524332303a20617070726f766520746f20746865207a65726f20616464726560008201527f7373000000000000000000000000000000000000000000000000000000000000602082015250565b6000611515602283610f12565b9150611520826114b9565b604082019050919050565b6000602082019050818103600083015261154481611508565b9050919050565b7f45524332303a20696e73756666696369656e7420616c6c6f77616e6365000000600082015250565b6000611581601d83610f12565b915061158c8261154b565b602082019050919050565b600060208201905081810360008301526115b081611574565b9050919050565b7f45524332303a207472616e736665722066726f6d20746865207a65726f20616460008201527f6472657373000000000000000000000000000000000000000000000000000000602082015250565b6000611613602583610f12565b915061161e826115b7565b604082019050919050565b6000602082019050818103600083015261164281611606565b9050919050565b7f45524332303a207472616e7366657220746f20746865207a65726f206164647260008201527f6573730000000000000000000000000000000000000000000000000000000000602082015250565b60006116a5602383610f12565b91506116b082611649565b604082019050919050565b600060208201905081810360008301526116d481611698565b9050919050565b7f45524332303a207472616e7366657220616d6f756e742065786365656473206260008201527f616c616e63650000000000000000000000000000000000000000000000000000602082015250565b6000611737602683610f12565b9150611742826116db565b604082019050919050565b600060208201905081810360008301526117668161172a565b9050919050565b7f45524332303a206d696e7420746f20746865207a65726f206164647265737300600082015250565b60006117a3601f83610f12565b91506117ae8261176d565b602082019050919050565b600060208201905081810360008301526117d281611796565b9050919050565b7f45524332303a206275726e2066726f6d20746865207a65726f2061646472657360008201527f7300000000000000000000000000000000000000000000000000000000000000602082015250565b6000611835602183610f12565b9150611840826117d9565b604082019050919050565b6000602082019050818103600083015261186481611828565b9050919050565b7f45524332303a206275726e20616d6f756e7420657863656564732062616c616e60008201527f6365000000000000000000000000000000000000000000000000000000000000602082015250565b60006118c7602283610f12565b91506118d28261186b565b604082019050919050565b600060208201905081810360008301526118f6816118ba565b905091905056fea2646970667358221220c89f9c63fbd1a4f6ff255f0f76b893060746f8a991198de6872402e9b050710164736f6c63430008130033",
  "linkReferences": {},
  "deployedLinkReferences": {}
}