{
  "_format": "hh-sol-artifact-1",
  "contractName": "MyToken",
  "sourceName": "contracts/MyToken.sol",
  "abi": [
    {
      "inputs": [
        {
          "internalType": "address",
          "name": "initialRecipient",
          "type": "address"
        }
      ],
      "stateMutability": "nonpayable",
      "type": "constructor"
    },
    {
      "anonymous": false,
      "inputs": [
        {
          "indexed": true,
          "internalType": "address",
          "name": "owner",
          "type": "address"
        },
        {
          "indexed": true,
          "internalType": "address",
          "name": "spender",
          "type": "address"
        },
        {
          "indexed": false,
          "internalType": "uint256",
          "name": "value",
          "type": "uint256"
        }
      ],
      "name": "Approval",
      "type": "event"
    },
    {
      "anonymous": false,
      "inputs": [
        {
          "indexed": false,
          "internalType": "uint256",
          "name": "amountBurned",
          "type": "uint256"
        },
        {
          "indexed": false,
          "internalType": "uint256",
          "name": "timestamp",
          "type": "uint256"
        }
      ],
      "name": "BurnExecuted",
      "type": "event"
    },
    {
      "anonymous": false,
      "inputs": [
        {
          "indexed": false,
          "internalType": "uint256",
          "name": "burnTime",
          "type": "uint256"
        }
      ],
      "name": "BurnScheduled",
      "type": "event"
    },
    {
      "anonymous": false,
      "inputs": [
        {
          "indexed": true,
          "internalType": "address",
          "name": "previousOwner",
          "type": "address"
        },
        {
          "indexed": true,
          "internalType": "address",
          "name": "newOwner",
          "type": "address"
        }
      ],
      "name": "OwnershipTransferred",
      "type": "event"
    },
    {
      "anonymous": false,
      "inputs": [
        {
          "indexed": true,
          "internalType": "address",
          "name": "recipient",
          "type": "address"
        },
        {
          "indexed": false,
          "internalType": "uint256",
          "name": "amount",
          "type": "uint256"
        }
      ],
      "name": "TokensAllocated",
      "type": "event"
    },
    {
      "anonymous": false,
      "inputs": [
        {
          "indexed": true,
          "internalType": "address",
          "name": "from",
          "type": "address"
        },
        {
          "indexed": true,
          "internalType": "address",
          "name": "to",
          "type": "address"
        },
        {
          "indexed": false,
          "internalType": "uint256",
          "name": "value",
          "type": "uint256"
        }
      ],
      "name": "Transfer",
      "type": "event"
    },
    {
      "inputs": [
        {
          "internalType": "address",
          "name": "recipient",
          "type": "address"
        },
        {
          "internalType": "uint256",
          "name": "amount",
          "type": "uint256"
        }
      ],
      "name": "allocateTokens",
      "outputs": [],
      "stateMutability": "nonpayable",
      "type": "function"
    },
    {
      "inputs": [
        {
          "internalType": "address",
          "name": "owner",
          "type": "address"
        },
        {
          "internalType": "address",
          "name": "spender",
          "type": "address"
        }
      ],
      "name": "allowance",
      "outputs": [
        {
          "internalType": "uint256",
          "name": "",
          "type": "uint256"
        }
      ],
      "stateMutability": "view",
      "type": "function"
    },
    {
      "inputs": [
        {
          "internalType": "address",
          "name": "spender",
          "type": "address"
        },
        {
          "internalType": "uint256",
          "name": "amount",
          "type": "uint256"
        }
      ],
      "name": "approve",
      "outputs": [
        {
          "internalType": "bool",
          "name": "",
          "type": "bool"
        }
      ],
      "stateMutability": "nonpayable",
      "type": "function"
    },
    {
      "inputs": [
        {
          "internalType": "address",
          "name": "account",
          "type": "address"
        }
      ],
      "name": "balanceOf",
      "outputs": [
        {
          "internalType": "uint256",
          "name": "",
          "type": "uint256"
        }
      ],
      "stateMutability": "view",
      "type": "function"
    },
    {
      "inputs": [],
      "name": "burnExecuted",
      "outputs": [
        {
          "internalType": "bool",
          "name": "",
          "type": "bool"
        }
      ],
      "stateMutability": "view",
      "type": "function"
    },
    {
      "inputs": [],
      "name": "burnTime",
      "outputs": [
        {
          "internalType": "uint256",
          "name": "",
          "type": "uint256"
        }
      ],
      "stateMutability": "view",
      "type": "function"
    },
    {
      "inputs": [],
      "name": "cap",
      "outputs": [
        {
          "internalType": "uint256",
          "name": "",
          "type": "uint256"
        }
      ],
      "stateMutability": "view",
      "type": "function"
    },
    {
      "inputs": [],
      "name": "decimals",
      "outputs": [
        {
          "internalType": "uint8",
          "name": "",
          "type": "uint8"
        }
      ],
      "stateMutability": "view",
      "type": "function"
    },
    {
      "inputs": [
        {
          "internalType": "address",
          "name": "spender",
          "type": "address"
        },
        {
          "internalType": "uint256",
          "name": "subtractedValue",
          "type": "uint256"
        }
      ],
      "name": "decreaseAllowance",
      "outputs": [
        {
          "internalType": "bool",
          "name": "",
          "type": "bool"
        }
      ],
      "stateMutability": "nonpayable",
      "type": "function"
    },
    {
      "inputs": [],
      "name": "deploymentTime",
      "outputs": [
        {
          "internalType": "uint256",
          "name": "",
          "type": "uint256"
        }
      ],
      "stateMutability": "view",
      "type": "function"
    },
    {
      "inputs": [],
      "name": "executeBurn",
      "outputs": [],
      "stateMutability": "nonpayable",
      "type": "function"
    },
    {
      "inputs": [],
      "name": "getAvailableTokens",
      "outputs": [
        {
          "internalType": "uint256",
          "name": "",
          "type": "uint256"
        }
      ],
      "stateMutability": "view",
      "type": "function"
    },
    {
      "inputs": [],
      "name": "getStatus",
      "outputs": [
        {
          "internalType": "uint256",
          "name": "totalCap",
          "type": "uint256"
        },
        {
          "internalType": "uint256",
          "name": "available",
          "type": "uint256"
        },
        {
          "internalType": "uint256",
          "name": "distributed",
          "type": "uint256"
        },
        {
          "internalType": "uint256",
          "name": "scheduledBurnTime",
          "type": "uint256"
        },
        {
          "internalType": "bool",
          "name": "executed",
          "type": "bool"
        }
      ],
      "stateMutability": "view",
      "type": "function"
    },
    {
      "inputs": [],
      "name": "getTimeUntilBurn",
      "outputs": [
        {
          "internalType": "uint256",
          "name": "",
          "type": "uint256"
        }
      ],
      "stateMutability": "view",
      "type": "function"
    },
    {
      "inputs": [],
      "name": "getTotalDistributed",
      "outputs": [
        {
          "internalType": "uint256",
          "name": "",
          "type": "uint256"
        }
      ],
      "stateMutability": "view",
      "type": "function"
    },
    {
      "inputs": [
        {
          "internalType": "address",
          "name": "spender",
          "type": "address"
        },
        {
          "internalType": "uint256",
          "name": "addedValue",
          "type": "uint256"
        }
      ],
      "name": "increaseAllowance",
      "outputs": [
        {
          "internalType": "bool",
          "name": "",
          "type": "bool"
        }
      ],
      "stateMutability": "nonpayable",
      "type": "function"
    },
    {
      "inputs": [],
      "name": "isBurnEligible",
      "outputs": [
        {
          "internalType": "bool",
          "name": "",
          "type": "bool"
        }
      ],
      "stateMutability": "view",
      "type": "function"
    },
    {
      "inputs": [],
      "name": "name",
      "outputs": [
        {
          "internalType": "string",
          "name": "",
          "type": "string"
        }
      ],
      "stateMutability": "view",
      "type": "function"
    },
    {
      "inputs": [],
      "name": "owner",
      "outputs": [
        {
          "internalType": "address",
          "name": "",
          "type": "address"
        }
      ],
      "stateMutability": "view",
      "type": "function"
    },
    {
      "inputs": [],
      "name": "renounceOwnership",
      "outputs": [],
      "stateMutability": "nonpayable",
      "type": "function"
    },
    {
      "inputs": [],
      "name": "symbol",
      "outputs": [
        {
          "internalType": "string",
          "name": "",
          "type": "string"
        }
      ],
      "stateMutability": "view",
      "type": "function"
    },
    {
      "inputs": [],
      "name": "totalSupply",
      "outputs": [
        {
          "internalType": "uint256",
          "name": "",
          "type": "uint256"
        }
      ],
      "stateMutability": "view",
      "type": "function"
    },
    {
      "inputs": [
        {
          "internalType": "address",
          "name": "to",
          "type": "address"
        },
        {
          "internalType": "uint256",
          "name": "amount",
          "type": "uint256"
        }
      ],
      "name": "transfer",
      "outputs": [
        {
          "internalType": "bool",
          "name": "",
          "type": "bool"
        }
      ],
      "stateMutability": "nonpayable",
      "type": "function"
    },
    {
      "inputs": [
        {
          "internalType": "address",
          "name": "from",
          "type": "address"
        },
        {
          "internalType": "address",
          "name": "to",
          "type": "address"
        },
        {
          "internalType": "uint256",
          "name": "amount",
          "type": "uint256"
        }
      ],
      "name": "transferFrom",
      "outputs": [
        {
          "internalType": "bool",
          "name": "",
          "type": "bool"
        }
      ],
      "stateMutability": "nonpayable",
      "type": "function"
    },
    {
      "inputs": [
        {
          "internalType": "address",
          "name": "newOwner",
          "type": "address"
        }
      ],
      "name": "transferOwnership",
      "outputs": [],
      "stateMutability": "nonpayable",
      "type": "function"
    }
  ],
  "bytecode": "0x60e06040523480156200001157600080fd5b5060405162002d9a38038062002d9a8339818101604052810190620000379190620004b9565b6040518060400160405280600b81526020017f4b68616e5820546f6b656e0000000000000000000000000000000000000000008152506040518060400160405280600381526020017f4d544b00000000000000000000000000000000000000000000000000000000008152508160039081620000b4919062000765565b508060049081620000c6919062000765565b505050620000e9620000dd6200020160201b60201c565b6200020960201b60201c565b620000f9620002cf60201b60201c565b600a620001079190620009dc565b620186a062000117919062000a2d565b60808181525050600062000130620002cf60201b60201c565b600a6200013e9190620009dc565b6103e86200014d919062000a2d565b9050620001618282620002d860201b60201c565b62000182308260805162000176919062000a78565b620002d860201b60201c565b4260a081815250506301e13380426200019c919062000ab3565b60c081815250506000600560146101000a81548160ff0219169083151502179055507f1a4371b530b68a8365860b56d23f7fd7350fa28f14eff45796666aa03e0f528360c051604051620001f1919062000aff565b60405180910390a1505062000b9f565b600033905090565b6000600560009054906101000a900473ffffffffffffffffffffffffffffffffffffffff16905081600560006101000a81548173ffffffffffffffffffffffffffffffffffffffff021916908373ffffffffffffffffffffffffffffffffffffffff1602179055508173ffffffffffffffffffffffffffffffffffffffff168173ffffffffffffffffffffffffffffffffffffffff167f8be0079c531659141344cd1fd0a4f28419497f9722a3daafe3b4186f6b6457e060405160405180910390a35050565b60006012905090565b600073ffffffffffffffffffffffffffffffffffffffff168273ffffffffffffffffffffffffffffffffffffffff16036200034a576040517f08c379a0000000000000000000000000000000000000000000000000000000008152600401620003419062000b7d565b60405180910390fd5b6200035e600083836200044560201b60201c565b806002600082825462000372919062000ab3565b92505081905550806000808473ffffffffffffffffffffffffffffffffffffffff1673ffffffffffffffffffffffffffffffffffffffff168152602001908152602001600020600082825401925050819055508173ffffffffffffffffffffffffffffffffffffffff16600073ffffffffffffffffffffffffffffffffffffffff167fddf252ad1be2c89b69c2b068fc378daa952ba7f163c4a11628f55a4df523b3ef8360405162000425919062000aff565b60405180910390a362000441600083836200044a60201b60201c565b5050565b505050565b505050565b600080fd5b600073ffffffffffffffffffffffffffffffffffffffff82169050919050565b6000620004818262000454565b9050919050565b620004938162000474565b81146200049f57600080fd5b50565b600081519050620004b38162000488565b92915050565b600060208284031215620004d257620004d16200044f565b5b6000620004e284828501620004a2565b91505092915050565b600081519050919050565b7f4e487b7100000000000000000000000000000000000000000000000000000000600052604160045260246000fd5b7f4e487b7100000000000000000000000000000000000000000000000000000000600052602260045260246000fd5b600060028204905060018216806200056d57607f821691505b60208210810362000583576200058262000525565b5b50919050565b60008190508160005260206000209050919050565b60006020601f8301049050919050565b600082821b905092915050565b600060088302620005ed7fffffffffffffffffffffffffffffffffffffffffffffffffffffffffffffffff82620005ae565b620005f98683620005ae565b95508019841693508086168417925050509392505050565b6000819050919050565b6000819050919050565b600062000646620006406200063a8462000611565b6200061b565b62000611565b9050919050565b6000819050919050565b620006628362000625565b6200067a62000671826200064d565b848454620005bb565b825550505050565b600090565b6200069162000682565b6200069e81848462000657565b505050565b5b81811015620006c657620006ba60008262000687565b600181019050620006a4565b5050565b601f8211156200071557620006df8162000589565b620006ea846200059e565b81016020851015620006fa578190505b6200071262000709856200059e565b830182620006a3565b50505b505050565b600082821c905092915050565b60006200073a600019846008026200071a565b1980831691505092915050565b600062000755838362000727565b9150826002028217905092915050565b6200077082620004eb565b67ffffffffffffffff8111156200078c576200078b620004f6565b5b62000798825462000554565b620007a5828285620006ca565b600060209050601f831160018114620007dd5760008415620007c8578287015190505b620007d4858262000747565b86555062000844565b601f198416620007ed8662000589565b60005b828110156200081757848901518255600182019150602085019450602081019050620007f0565b8683101562000837578489015162000833601f89168262000727565b8355505b6001600288020188555050505b505050505050565b7f4e487b7100000000000000000000000000000000000000000000000000000000600052601160045260246000fd5b60008160011c9050919050565b6000808291508390505b6001851115620008da57808604811115620008b257620008b16200084c565b5b6001851615620008c25780820291505b8081029050620008d2856200087b565b945062000892565b94509492505050565b600082620008f55760019050620009c8565b81620009055760009050620009c8565b81600181146200091e576002811462000929576200095f565b6001915050620009c8565b60ff8411156200093e576200093d6200084c565b5b8360020a9150848211156200095857620009576200084c565b5b50620009c8565b5060208310610133831016604e8410600b8410161715620009995782820a9050838111156200099357620009926200084c565b5b620009c8565b620009a8848484600162000888565b92509050818404811115620009c257620009c16200084c565b5b81810290505b9392505050565b600060ff82169050919050565b6000620009e98262000611565b9150620009f683620009cf565b925062000a257fffffffffffffffffffffffffffffffffffffffffffffffffffffffffffffffff8484620008e3565b905092915050565b600062000a3a8262000611565b915062000a478362000611565b925082820262000a578162000611565b9150828204841483151762000a715762000a706200084c565b5b5092915050565b600062000a858262000611565b915062000a928362000611565b925082820390508181111562000aad5762000aac6200084c565b5b92915050565b600062000ac08262000611565b915062000acd8362000611565b925082820190508082111562000ae85762000ae76200084c565b5b92915050565b62000af98162000611565b82525050565b600060208201905062000b16600083018462000aee565b92915050565b600082825260208201905092915050565b7f45524332303a206d696e7420746f20746865207a65726f206164647265737300600082015250565b600062000b65601f8362000b1c565b915062000b728262000b2d565b602082019050919050565b6000602082019050818103600083015262000b988162000b56565b9050919050565b60805160a05160c05161219362000c076000396000818161058d0152818161061901528181610836015281816109f801528181610a290152610c1d01526000610c41015260008181610777015281816107da01528181610809015261087d01526121936000f3fe608060405234801561001057600080fd5b50600436106101735760003560e01c8063715018a6116100de578063a457c2d711610097578063e35568cb11610071578063e35568cb14610446578063ebf6cf9b14610464578063ecda10f514610482578063f2fde38b146104a057610173565b8063a457c2d7146103b6578063a9059cbb146103e6578063dd62ed3e1461041657610173565b8063715018a61461031857806385a2323c1461032257806386ce0285146103405780638da5cb5b1461035c57806392073bd41461037a57806395d89b411461039857610173565b8063313ce56711610130578063313ce5671461023c578063355274ea1461025a57806339509351146102785780634e69d560146102a85780635695fa58146102ca57806370a08231146102e857610173565b806306fdde0314610178578063095ea7b3146101965780630af9f1d5146101c657806318160ddd146101e45780631eec90351461020257806323b872dd1461020c575b600080fd5b6101806104bc565b60405161018d9190611564565b60405180910390f35b6101b060048036038101906101ab919061161f565b61054e565b6040516101bd919061167a565b60405180910390f35b6101ce610571565b6040516101db919061167a565b60405180910390f35b6101ec6105b5565b6040516101f991906116a4565b60405180910390f35b61020a6105bf565b005b610226600480360381019061022191906116bf565b61073d565b604051610233919061167a565b60405180910390f35b61024461076c565b604051610251919061172e565b60405180910390f35b610262610775565b60405161026f91906116a4565b60405180910390f35b610292600480360381019061028d919061161f565b610799565b60405161029f919061167a565b60405180910390f35b6102b06107d0565b6040516102c1959493929190611749565b60405180910390f35b6102d2610870565b6040516102df91906116a4565b60405180910390f35b61030260048036038101906102fd919061179c565b6108ab565b60405161030f91906116a4565b60405180910390f35b6103206108f3565b005b61032a610907565b604051610337919061167a565b60405180910390f35b61035a6004803603810190610355919061161f565b61091a565b005b6103646109ca565b60405161037191906117d8565b60405180910390f35b6103826109f4565b60405161038f91906116a4565b60405180910390f35b6103a0610a58565b6040516103ad9190611564565b60405180910390f35b6103d060048036038101906103cb919061161f565b610aea565b6040516103dd919061167a565b60405180910390f35b61040060048036038101906103fb919061161f565b610b61565b60405161040d919061167a565b60405180910390f35b610430600480360381019061042b91906117f3565b610b84565b60405161043d91906116a4565b60405180910390f35b61044e610c0b565b60405161045b91906116a4565b60405180910390f35b61046c610c1b565b60405161047991906116a4565b60405180910390f35b61048a610c3f565b60405161049791906116a4565b60405180910390f35b6104ba60048036038101906104b5919061179c565b610c63565b005b6060600380546104cb90611862565b80601f01602080910402602001604051908101604052809291908181526020018280546104f790611862565b80156105445780601f1061051957610100808354040283529160200191610544565b820191906000526020600020905b81548152906001019060200180831161052757829003601f168201915b5050505050905090565b600080610559610ce6565b9050610566818585610cee565b600191505092915050565b6000600560149054906101000a900460ff161580156105b057507f00000000000000000000000000000000000000000000000000000000000000004210155b905090565b6000600254905090565b6105c7610eb7565b600560149054906101000a900460ff1615610617576040517f08c379a000000000000000000000000000000000000000000000000000000000815260040161060e906118df565b60405180910390fd5b7f000000000000000000000000000000000000000000000000000000000000000042101561067a576040517f08c379a00000000000000000000000000000000000000000000000000000000081526004016106719061194b565b60405180910390fd5b6000610685306108ab565b9050600081116106ca576040517f08c379a00000000000000000000000000000000000000000000000000000000081526004016106c1906119b7565b60405180910390fd5b60006002826106d99190611a35565b90506106e53082610f35565b6001600560146101000a81548160ff0219169083151502179055507f3ed8840592dd71298523ecd4452e3d8c3b9db10dd83a219e7b8934eb1dbdc6cd8142604051610731929190611a66565b60405180910390a15050565b600080610748610ce6565b9050610755858285611102565b61076085858561118e565b60019150509392505050565b60006012905090565b7f000000000000000000000000000000000000000000000000000000000000000081565b6000806107a4610ce6565b90506107c58185856107b68589610b84565b6107c09190611a8f565b610cee565b600191505092915050565b60008060008060007f00000000000000000000000000000000000000000000000000000000000000009450610804306108ab565b9350837f00000000000000000000000000000000000000000000000000000000000000006108329190611ac3565b92507f00000000000000000000000000000000000000000000000000000000000000009150600560149054906101000a900460ff1690509091929394565b600061087b306108ab565b7f00000000000000000000000000000000000000000000000000000000000000006108a69190611ac3565b905090565b60008060008373ffffffffffffffffffffffffffffffffffffffff1673ffffffffffffffffffffffffffffffffffffffff168152602001908152602001600020549050919050565b6108fb610eb7565b6109056000611404565b565b600560149054906101000a900460ff1681565b610922610eb7565b8061092c306108ab565b101561096d576040517f08c379a000000000000000000000000000000000000000000000000000000000815260040161096490611b43565b60405180910390fd5b61097830838361118e565b8173ffffffffffffffffffffffffffffffffffffffff167f3b87361b8a201c697d51aaa7a509f6dfb3870db9e5c5501d22d3e9fae858f725826040516109be91906116a4565b60405180910390a25050565b6000600560009054906101000a900473ffffffffffffffffffffffffffffffffffffffff16905090565b60007f00000000000000000000000000000000000000000000000000000000000000004210610a265760009050610a55565b427f0000000000000000000000000000000000000000000000000000000000000000610a529190611ac3565b90505b90565b606060048054610a6790611862565b80601f0160208091040260200160405190810160405280929190818152602001828054610a9390611862565b8015610ae05780601f10610ab557610100808354040283529160200191610ae0565b820191906000526020600020905b815481529060010190602001808311610ac357829003601f168201915b5050505050905090565b600080610af5610ce6565b90506000610b038286610b84565b905083811015610b48576040517f08c379a0000000000000000000000000000000000000000000000000000000008152600401610b3f90611bd5565b60405180910390fd5b610b558286868403610cee565b60019250505092915050565b600080610b6c610ce6565b9050610b7981858561118e565b600191505092915050565b6000600160008473ffffffffffffffffffffffffffffffffffffffff1673ffffffffffffffffffffffffffffffffffffffff16815260200190815260200160002060008373ffffffffffffffffffffffffffffffffffffffff1673ffffffffffffffffffffffffffffffffffffffff16815260200190815260200160002054905092915050565b6000610c16306108ab565b905090565b7f000000000000000000000000000000000000000000000000000000000000000081565b7f000000000000000000000000000000000000000000000000000000000000000081565b610c6b610eb7565b600073ffffffffffffffffffffffffffffffffffffffff168173ffffffffffffffffffffffffffffffffffffffff1603610cda576040517f08c379a0000000000000000000000000000000000000000000000000000000008152600401610cd190611c67565b60405180910390fd5b610ce381611404565b50565b600033905090565b600073ffffffffffffffffffffffffffffffffffffffff168373ffffffffffffffffffffffffffffffffffffffff1603610d5d576040517f08c379a0000000000000000000000000000000000000000000000000000000008152600401610d5490611cf9565b60405180910390fd5b600073ffffffffffffffffffffffffffffffffffffffff168273ffffffffffffffffffffffffffffffffffffffff1603610dcc576040517f08c379a0000000000000000000000000000000000000000000000000000000008152600401610dc390611d8b565b60405180910390fd5b80600160008573ffffffffffffffffffffffffffffffffffffffff1673ffffffffffffffffffffffffffffffffffffffff16815260200190815260200160002060008473ffffffffffffffffffffffffffffffffffffffff1673ffffffffffffffffffffffffffffffffffffffff168152602001908152602001600020819055508173ffffffffffffffffffffffffffffffffffffffff168373ffffffffffffffffffffffffffffffffffffffff167f8c5be1e5ebec7d5bd14f71427d1e84f3dd0314c0f7b2291e5b200ac8c7c3b92583604051610eaa91906116a4565b60405180910390a3505050565b610ebf610ce6565b73ffffffffffffffffffffffffffffffffffffffff16610edd6109ca565b73ffffffffffffffffffffffffffffffffffffffff1614610f33576040517f08c379a0000000000000000000000000000000000000000000000000000000008152600401610f2a90611df7565b60405180910390fd5b565b600073ffffffffffffffffffffffffffffffffffffffff168273ffffffffffffffffffffffffffffffffffffffff1603610fa4576040517f08c379a0000000000000000000000000000000000000000000000000000000008152600401610f9b90611e89565b60405180910390fd5b610fb0826000836114ca565b60008060008473ffffffffffffffffffffffffffffffffffffffff1673ffffffffffffffffffffffffffffffffffffffff16815260200190815260200160002054905081811015611036576040517f08c379a000000000000000000000000000000000000000000000000000000000815260040161102d90611f1b565b60405180910390fd5b8181036000808573ffffffffffffffffffffffffffffffffffffffff1673ffffffffffffffffffffffffffffffffffffffff1681526020019081526020016000208190555081600260008282540392505081905550600073ffffffffffffffffffffffffffffffffffffffff168373ffffffffffffffffffffffffffffffffffffffff167fddf252ad1be2c89b69c2b068fc378daa952ba7f163c4a11628f55a4df523b3ef846040516110e991906116a4565b60405180910390a36110fd836000846114cf565b505050565b600061110e8484610b84565b90507fffffffffffffffffffffffffffffffffffffffffffffffffffffffffffffffff8114611188578181101561117a576040517f08c379a000000000000000000000000000000000000000000000000000000000815260040161117190611f87565b60405180910390fd5b6111878484848403610cee565b5b50505050565b600073ffffffffffffffffffffffffffffffffffffffff168373ffffffffffffffffffffffffffffffffffffffff16036111fd576040517f08c379a00000000000000000000000000000000000000000000000000000000081526004016111f490612019565b60405180910390fd5b600073ffffffffffffffffffffffffffffffffffffffff168273ffffffffffffffffffffffffffffffffffffffff160361126c576040517f08c379a0000000000000000000000000000000000000000000000000000000008152600401611263906120ab565b60405180910390fd5b6112778383836114ca565b60008060008573ffffffffffffffffffffffffffffffffffffffff1673ffffffffffffffffffffffffffffffffffffffff168152602001908152602001600020549050818110156112fd576040517f08c379a00000000000000000000000000000000000000000000000000000000081526004016112f49061213d565b60405180910390fd5b8181036000808673ffffffffffffffffffffffffffffffffffffffff1673ffffffffffffffffffffffffffffffffffffffff16815260200190815260200160002081905550816000808573ffffffffffffffffffffffffffffffffffffffff1673ffffffffffffffffffffffffffffffffffffffff168152602001908152602001600020600082825401925050819055508273ffffffffffffffffffffffffffffffffffffffff168473ffffffffffffffffffffffffffffffffffffffff167fddf252ad1be2c89b69c2b068fc378daa952ba7f163c4a11628f55a4df523b3ef846040516113eb91906116a4565b60405180910390a36113fe8484846114cf565b50505050565b6000600560009054906101000a900473ffffffffffffffffffffffffffffffffffffffff16905081600560006101000a81548173ffffffffffffffffffffffffffffffffffffffff021916908373ffffffffffffffffffffffffffffffffffffffff1602179055508173ffffffffffffffffffffffffffffffffffffffff168173ffffffffffffffffffffffffffffffffffffffff167f8be0079c531659141344cd1fd0a4f28419497f9722a3daafe3b4186f6b6457e060405160405180910390a35050565b505050565b505050565b600081519050919050565b600082825260208201905092915050565b60005b8381101561150e5780820151818401526020810190506114f3565b60008484015250505050565b6000601f19601f8301169050919050565b6000611536826114d4565b61154081856114df565b93506115508185602086016114f0565b6115598161151a565b840191505092915050565b6000602082019050818103600083015261157e818461152b565b905092915050565b600080fd5b600073ffffffffffffffffffffffffffffffffffffffff82169050919050565b60006115b68261158b565b9050919050565b6115c6816115ab565b81146115d157600080fd5b50565b6000813590506115e3816115bd565b92915050565b6000819050919050565b6115fc816115e9565b811461160757600080fd5b50565b600081359050611619816115f3565b92915050565b6000806040838503121561163657611635611586565b5b6000611644858286016115d4565b92505060206116558582860161160a565b9150509250929050565b60008115159050919050565b6116748161165f565b82525050565b600060208201905061168f600083018461166b565b92915050565b61169e816115e9565b82525050565b60006020820190506116b96000830184611695565b92915050565b6000806000606084860312156116d8576116d7611586565b5b60006116e6868287016115d4565b93505060206116f7868287016115d4565b92505060406117088682870161160a565b9150509250925092565b600060ff82169050919050565b61172881611712565b82525050565b6000602082019050611743600083018461171f565b92915050565b600060a08201905061175e6000830188611695565b61176b6020830187611695565b6117786040830186611695565b6117856060830185611695565b611792608083018461166b565b9695505050505050565b6000602082840312156117b2576117b1611586565b5b60006117c0848285016115d4565b91505092915050565b6117d2816115ab565b82525050565b60006020820190506117ed60008301846117c9565b92915050565b6000806040838503121561180a57611809611586565b5b6000611818858286016115d4565b9250506020611829858286016115d4565b9150509250929050565b7f4e487b7100000000000000000000000000000000000000000000000000000000600052602260045260246000fd5b6000600282049050600182168061187a57607f821691505b60208210810361188d5761188c611833565b5b50919050565b7f4275726e20616c72656164792065786563757465640000000000000000000000600082015250565b60006118c96015836114df565b91506118d482611893565b602082019050919050565b600060208201905081810360008301526118f8816118bc565b9050919050565b7f4275726e206e6f742079657420656c696769626c650000000000000000000000600082015250565b60006119356015836114df565b9150611940826118ff565b602082019050919050565b6000602082019050818103600083015261196481611928565b9050919050565b7f4e6f20746f6b656e7320746f206275726e000000000000000000000000000000600082015250565b60006119a16011836114df565b91506119ac8261196b565b602082019050919050565b600060208201905081810360008301526119d081611994565b9050919050565b7f4e487b7100000000000000000000000000000000000000000000000000000000600052601260045260246000fd5b7f4e487b7100000000000000000000000000000000000000000000000000000000600052601160045260246000fd5b6000611a40826115e9565b9150611a4b836115e9565b925082611a5b57611a5a6119d7565b5b828204905092915050565b6000604082019050611a7b6000830185611695565b611a886020830184611695565b9392505050565b6000611a9a826115e9565b9150611aa5836115e9565b9250828201905080821115611abd57611abc611a06565b5b92915050565b6000611ace826115e9565b9150611ad9836115e9565b9250828203905081811115611af157611af0611a06565b5b92915050565b7f496e73756666696369656e7420726573657276656420746f6b656e7300000000600082015250565b6000611b2d601c836114df565b9150611b3882611af7565b602082019050919050565b60006020820190508181036000830152611b5c81611b20565b9050919050565b7f45524332303a2064656372656173656420616c6c6f77616e63652062656c6f7760008201527f207a65726f000000000000000000000000000000000000000000000000000000602082015250565b6000611bbf6025836114df565b9150611bca82611b63565b604082019050919050565b60006020820190508181036000830152611bee81611bb2565b9050919050565b7f4f776e61626c653a206e6577206f776e657220697320746865207a65726f206160008201527f6464726573730000000000000000000000000000000000000000000000000000602082015250565b6000611c516026836114df565b9150611c5c82611bf5565b604082019050919050565b60006020820190508181036000830152611c8081611c44565b9050919050565b7f45524332303a20617070726f76652066726f6d20746865207a65726f2061646460008201527f7265737300000000000000000000000000000000000000000000000000000000602082015250565b6000611ce36024836114df565b9150611cee82611c87565b604082019050919050565b60006020820190508181036000830152611d1281611cd6565b9050919050565b7f45524332303a20617070726f766520746f20746865207a65726f20616464726560008201527f7373000000000000000000000000000000000000000000000000000000000000602082015250565b6000611d756022836114df565b9150611d8082611d19565b604082019050919050565b60006020820190508181036000830152611da481611d68565b9050919050565b7f4f776e61626c653a2063616c6c6572206973206e6f7420746865206f776e6572600082015250565b6000611de16020836114df565b9150611dec82611dab565b602082019050919050565b60006020820190508181036000830152611e1081611dd4565b9050919050565b7f45524332303a206275726e2066726f6d20746865207a65726f2061646472657360008201527f7300000000000000000000000000000000000000000000000000000000000000602082015250565b6000611e736021836114df565b9150611e7e82611e17565b604082019050919050565b60006020820190508181036000830152611ea281611e66565b9050919050565b7f45524332303a206275726e20616d6f756e7420657863656564732062616c616e60008201527f6365000000000000000000000000000000000000000000000000000000000000602082015250565b6000611f056022836114df565b9150611f1082611ea9565b604082019050919050565b60006020820190508181036000830152611f3481611ef8565b9050919050565b7f45524332303a20696e73756666696369656e7420616c6c6f77616e6365000000600082015250565b6000611f71601d836114df565b9150611f7c82611f3b565b602082019050919050565b60006020820190508181036000830152611fa081611f64565b9050919050565b7f45524332303a207472616e736665722066726f6d20746865207a65726f20616460008201527f6472657373000000000000000000000000000000000000000000000000000000602082015250565b60006120036025836114df565b915061200e82611fa7565b604082019050919050565b6000602082019050818103600083015261203281611ff6565b9050919050565b7f45524332303a207472616e7366657220746f20746865207a65726f206164647260008201527f6573730000000000000000000000000000000000000000000000000000000000602082015250565b60006120956023836114df565b91506120a082612039565b604082019050919050565b600060208201905081810360008301526120c481612088565b9050919050565b7f45524332303a207472616e7366657220616d6f756e742065786365656473206260008201527f616c616e63650000000000000000000000000000000000000000000000000000602082015250565b60006121276026836114df565b9150612132826120cb565b604082019050919050565b600060208201905081810360008301526121568161211a565b905091905056fea2646970667358221220fe08b017e7fe068023be0584a3268492432f45f52ef639f31347cb518c037e0d64736f6c63430008130033",
  "linkReferences": {},
  "deployedLinkReferences": {}
}